:020000040000FA
:1000000070200020150200001D0200001F020000E9
:100010002102000023020000250200000000000071
:1000200000000000000000000000000027020000A7
:1000300029020000000000002B0200002D02000039
:100040005D0200002F020000E9040000B50200007C
:100050002F0200002F0200002F0200002F020000DC
:100060002F0200002F0200002F0200002F020000CC
:100070002F0200002F0200002F0200002F020000BC
:100080002F0200002F0200002F0200002F020000AC
:100090002F0200002F0200002F0200002F0200009C
:1000A0002F0200002F0200002F0200002F0200008C
:1000B0002F0200002F0200000000000000000000DE
:1000C0002F0200002F0200002F0200002F0200006C
:1000D0002F0200002F0200002F0200002F0200005C
:1000E0002F0200002F0200002F0200002F0200004C
:1000F000000000002F0200000000000000000000CF
:1001000000000000000000000000000000000000EF
:1001100000000000000000000000000000000000DF
:1001200000000000000000000000000000000000CF
:1001300000000000000000000000000000000000BF
:1001400000000000000000000000000000000000AF
:10015000000000000000000000000000000000009F
:10016000000000000000000000000000000000008F
:10017000000000000000000000000000000000007F
:10018000000000000000000000000000000000006F
:10019000000000000000000000000000000000005F
:1001A000000000000000000000000000000000004F
:1001B000000000000000000000000000000000003F
:1001C000000000000000000000000000000000002F
:1001D000000000000000000000000000000000001F
:1001E000000000000000000000000000000000000F
:1001F00000000000000000000000000000000000FF
:10020000DFF80CD000F018F800480047490B000058
:10021000702000200648804706480047FEE7FEE7BA
:10022000FEE7FEE7FEE7FEE7FEE7FEE7FEE7FEE7A6
:100230000103000001020000064C074D06E0E068E3
:1002400040F0010394E8070098471034AC42F6D31D
:10025000FFF7DAFFA8A50200C8A502002DE9F041CA
:100260004FF48077384600F0B9FC0124104EA50702
:1002700048B1384600F0B9FC0120C5F80803747095
:10028000002000F0BFF94FF48277384600F0A6FC5A
:1002900000280BD0384600F0A8FC0220C5F808035F
:1002A000B470BDE8F041012000F0ACB9BDE8F081C8
:1002B00018000020F8B511480F4D04464FF48C711A
:1002C00001F08AF9002815D00026C4F81861D4F886
:1002D00018010090A87F2C46FF2801D001F068F992
:1002E00066772672D4E9002101B004F10800BDE868
:1002F000F0401047F8BD00002C0000200030004006
:1003000030B54FF080500022D0F830110123082979
:1003100002D1D0F8344114B1082909D00BE04FF0D4
:100320008041C1F80C21C1F8102161490A6005E043
:10033000D0F8344114B1082957D059E05D49096813
:100340005D4C21605B49091D0968241D21605949E4
:1003500008310968241D216056490C310968241DA3
:100360002160544910310968241D2160514914311C
:100370000968241D21604F49183109684E4C20340A
:1003800021604C491C310968241D216049492031F4
:100390000968241D2160474924310968241D216012
:1003A000444928310968241D216042492C310968DB
:1003B000241D21603F49303109683F4C40342160A1
:1003C0003C4934310968241D21603A4938310968B3
:1003D000241D216037493C310968241D21603549BD
:1003E00040310968241D216005E0D0F8344114B182
:1003F000082904D006E0324C3049216005E0D0F8ED
:10040000344114B1082904D006E02E4CFB212160B0
:1004100005E0D0F8344114B1082908D00EE090F876
:1004200058422948016864F30301016002E0D0F8F2
:10043000340118B925494FF4007008602448016858
:1004400041F470010160BFF34F8FBFF36F8F4FF026
:100450001021D1F80002002803DBD1F804020028A3
:1004600022DA1C4C23601C480368002BFCD01223AA
:10047000C1F800320568002DFCD0C1F804320168D3
:100480000029FCD0226001680029FCD0BFF34F8F07
:100490000F487C380168114A01F4E06111430160A2
:1004A000BFF34F8F00BFFDE70E490D48086030BD18
:1004B000380500400404001020C5004048810300B6
:1004C0008C56004018F50040E40E00404096024073
:1004D00088ED00E004E5014000E401400400FA0575
:1004E0000090D003140000200448017F0448002934
:1004F000024901D001F0DCBA01F04BBA50000020F3
:100500000020004002E008C8121F08C1002AFAD1EA
:1005100070477047002001E001C1121F002AFBD183
:1005200070470000BFF34F8F05480168054A01F48A
:10053000E06111430160BFF34F8F00BFFDE7000092
:100540000CED00E00400FA050EB500210091CDE9A4
:1005500001106A4644F20100FFF7E4FF0EBD0000FF
:100560002DE9FC4125490026254DD1E90101CDE9C0
:10057000000117E0ADF8026000240CE0ADF8004087
:1005800001231F226946A86800F030FD08B1FFF77B
:10059000DBFF1534A4B2A86800F0B4FFA042EDD28E
:1005A0001536B6B2A86800F019FEB042E2D20A26AB
:1005B0004FF4784719E000BFADF802600A240CE060
:1005C000ADF8004000233A466946A86800F00EFDE9
:1005D00008B1FFF7B9FF1534A4B2A86800F092FF84
:1005E0000A30A042ECD21536B6B2A86800F0F6FD8B
:1005F0000A30B042E0D2BDE8FC810000781C000067
:100600000000002070B5084C050009D010342168A6
:10061000002907D008682060496828468847F6E71F
:100620000834F4E770BD00001800002010B5CF209A
:1006300001F00FFB002001F015FBC12001F012FBBF
:10064000302001F00FFBE82001F003FB852001F0D2
:1006500009FB002001F006FB782001F003FBCB2012
:1006600001F0F7FA392001F0FDFA2C2001F0FAFA36
:10067000002001F0F7FA342001F0F4FA022001F032
:10068000F1FAF72001F0E5FA202001F0EBFAEA2078
:1006900001F0DFFA002001F0E5FA002001F0E2FAB3
:1006A000C02001F0D6FA232001F0DCFAC12001F0CD
:1006B000D0FA102001F0D6FAC52001F0CAFA3E2087
:1006C00001F0D0FA282001F0CDFAC72001F0C1FADC
:1006D000862001F0C7FA362001F0BBFA482001F06D
:1006E000C1FA3A2001F0B5FA552001F0BBFAB12069
:1006F00001F0AFFA002001F0B5FA182001F0B2FACB
:10070000B62001F0A6FA082001F0ACFA822001F030
:10071000A9FA272001F0A6FAF22001F09AFA0020A7
:1007200001F0A0FA262001F094FA012001F09AFAD3
:10073000E02001F08EFA0F2001F094FA312001F050
:1007400091FA2B2001F08EFA0C2001F08BFA0E208A
:1007500001F088FA082001F085FA4E2001F082FAB3
:10076000F12001F07FFA372001F07CFA072001F038
:1007700079FA102001F076FA032001F073FA0E20C6
:1007800001F070FA092001F06DFA002001F06AFA18
:10079000E12001F05EFA002001F064FA0E2001F081
:1007A00061FA142001F05EFA032001F05BFA1120D7
:1007B00001F058FA072001F055FA312001F052FA01
:1007C000C12001F04FFA482001F04CFA082001F056
:1007D00049FA0F2001F046FA0C2001F043FA3120CB
:1007E00001F040FA362001F03DFA0F2001F03AFA0C
:1007F000112001F02EFA044800F04AFABDE810403A
:10080000292001F026BA0000C0D4010008B121203F
:1008100000E0202001F01DBA7047000010B586B03E
:100820002B200090684600F0B5FE009A032100EBF3
:100830008200C0F800170F4B01AC0FCB84E80F000B
:100840002F208DF804002E208DF806002D208DF825
:1008500005002C208DF80700064800231A4601A940
:10086000083800F07FFA040002D1FFF7DFFE2046CF
:1008700006B010BDB474020038B514460B460246EB
:1008800000F0D4FF200A8DF800008DF801402B20E5
:1008900000F098FE0221684600F0F2FF2B2000F0E5
:1008A00061FE38BDF8B51C4615460A19521E93B2B2
:1008B0004219521E92B2069E00F0B8FF300A8DF81F
:1008C00000008DF801602B2000F07CFE6C43E01DE1
:1008D000C11700EB5170C510E01704EB507020F009
:1008E0000700201A082827D2DFE800F004201C188F
:1008F00014100C080221684600F0C2FF022168466D
:1009000000F0BEFF0221684600F0BAFF02216846EF
:1009100000F0B6FF0221684600F0B2FF02216846EF
:1009200000F0AEFF0221684600F0AAFF02216846EF
:1009300000F0A6FF6D1EDDD12B2000F013FEF8BDE8
:1009400010B50446362001F084F954B1012C0AD0C8
:10095000022C0AD0032C0AD1E820BDE8104001F097
:1009600081B94820F9E72820F7E78820F5E710BD8E
:10097000014800F08FBA0000AC74020070B5424D1F
:1009800086B003AB95E80700404C83E807001C3DA8
:10099000A06800F023FC2835ADF8120095E80700A8
:1009A0008DE80700A06800F0ADFDADF80000A0687C
:1009B00000F014FCADF80200A06800F00FFCADF8E8
:1009C000060000254FF478460CE000BFADF810504B
:1009D000324603A9A06800F011FC08B1FFF7B4FD8E
:1009E0000A35ADB2A06800F08DFDA842EED2A06835
:1009F00000F088FDADF8100000250FE0A06800F0C1
:100A0000EDFB401BADF81200324603A9A06800F0D0
:100A1000F5FB08B1FFF798FD0A35ADB2A06800F00C
:100A2000DDFBA842EAD200250FE0A06800F0D6FB6B
:100A3000401BADF806001F226946A06800F0DEFBEF
:100A400008B1FFF781FD0A35ADB2A06800F0C6FB22
:100A5000A842EAD20020ADF8060005460CE000BF2F
:100A6000ADF804501F226946A06800F0C7FB08B12A
:100A7000FFF76AFD0A35ADB2A06800F043FDA84259
:100A8000EED206B070BD0000947402000000002099
:100A90002DE9FF4F83B09946DDF840800F4616469A
:100AA0004FF0FF30494501D2012300E00346019396
:100AB000424500DA012000904FF0000BB9EB07002F
:100AC00000D5404205B2B8EB060000D5404204B262
:100AD000119B039800F0A1FDA54204DA65406C402B
:100AE00065404FF0010B601B400000B202906000B7
:100AF0000FFA80FAAAEB050004B21EE0002C09DB15
:100B00000198384487B20098304486B20298204455
:100B100004B20CE004EB0A0004B2BBF1000F03D0F6
:100B20000098304486B202E00198384487B23246D9
:100B30003946119B039800F070FD4645DED14F45C4
:100B4000DCD107B0BDE8F08F0EB5224CA06800F0F4
:100B500048FB08B1FFF7F8FC1F4F01264FF47A75E8
:100B60000121A06800F047FB1B49A0681C3100F080
:100B7000F5F90021A06800F03EFB38680290A068FB
:100B800000F02CFB3238ADF80A006068CDE90006B1
:100B9000002202A92368A06800F0AAFB08B1FFF7B1
:100BA000D3FC284600F029F800F038FEFFF7E6FEF7
:100BB000284600F022F800F031FEFFF7D1FC28466D
:100BC00000F01BF800F02AFE00F03AFD284600F085
:100BD00014F8C5E700000020781C000000F18040F8
:100BE0000068002800D00120704708B500F180405F
:100BF000002101600068009008BD4FF47A714843FD
:100C0000AFF3008000283ED01F49204A096800BF8A
:100C100000BF00BF00BF00BF00BF00BF00BF9142C8
:100C20002FD000BF00BF00BF00BF00BF00BF00BF8C
:100C300000BF00BF00BF00BF00BF00BF00BF00BFBC
:100C400000BF00BF00BF00BF00BF00BF00BF00BFAC
:100C500000BF00BF00BF00BF00BF00BF00BF00BF9C
:100C600000BF00BF00BF00BF00BF00BF00BF00BF8C
:100C700000BF00BF00BF00BF00BF00BF00BF00BF7C
:100C800000BF401EC3D17047140000200024F400B0
:100C900000283ED01F49204A096800BF00BF00BF9E
:100CA00000BF00BF00BF00BF00BF91422FD000BFF8
:100CB00000BF00BF00BF00BF00BF00BF00BF00BF3C
:100CC00000BF00BF00BF00BF00BF00BF00BF00BF2C
:100CD00000BF00BF00BF00BF00BF00BF00BF00BF1C
:100CE00000BF00BF00BF00BF00BF00BF00BF00BF0C
:100CF00000BF00BF00BF00BF00BF00BF00BF00BFFC
:100D000000BF00BF00BF00BF00BF00BF00BF401E4C
:100D1000C3D17047140000200024F4004907090ED5
:100D2000002806DA00F00F0202F1E02282F8141D1A
:100D300003E000F1E02282F8001400F01F0201211C
:100D400091404009800000F1E020C0F88012C0F816
:100D5000001170470121B1EB507F01D10120704794
:100D6000002070472DE9FC47074640790C46DFF824
:100D700004A100EBC0010AEB8106307F10B108200E
:100D8000BDE8FC87C6E90023207B0128207802D833
:100D900000F0DEFB01E000F00BFC4FF00009CDF8A5
:100DA0000090CDF8049020784B464A46012100F08F
:100DB000ACFB60784FF0FF35FF2806D0804600F08E
:100DC000C7FB404600F0BAFB00E0A846A078FF2829
:100DD00009D0002205464B46CDF800901146CDF8CB
:100DE000049000F092FBE078FF2804D000F0E0FBD4
:100DF000E07800F0A3FB7879E17800EBC0020AEB21
:100E00008200817738682278C0F80825C0F80C8500
:100E1000C0F81055A168C0F82415227B617B01B190
:100E20000121012A04D0022A05D0032A08D105E0B5
:100E300041F0020104E041F0040101E041F006014B
:100E4000C0F854156179C0F8C015316811B140215E
:100E5000C0F804130721C0F80015306820B12179CB
:100E600097F90400FFF75AFF484686F81D900121C4
:100E7000317785E72C0000201FB5069C00918DF886
:100E8000042002938DF80C400022694600F034F8EB
:100E900004B010BD2DE9F0414179164A01EBC101C2
:100EA00002EB81050122296859B190F9041001F083
:100EB0001F0302FA03F34909890001F1E021C1F897
:100EC000803104682868002670B1701EC4F80803D9
:100ED000687F48B162614FF482773946204600F05E
:100EE0007BFB0028F9D06E77C4F800652E77BDE84B
:100EF000F08100002C0000202DE9F04105460F464E
:100F00004079154900EBC00001EB80041646607F74
:100F100010B11120BDE8F081206820B116F0140F47
:100F200001D10120607797E80F0004F10C0888E8F0
:100F30000F0094F8210020F0070084F82100A07F22
:100F4000FF2801D000F004FB33463A4621462868CA
:100F5000BDE8F04100F0A6BC2C0000201CB500222A
:100F600000920192C2699288ADF80420C269528849
:100F7000ADF806200A46694600F001F81CBD2DE9CF
:100F8000F0478146C0690C4690468188228891428C
:100F900003D340886188884202D20720BDE8F087E9
:100FA0002079002600F001071BE0002515E0E1880C
:100FB0003844891B491E01FB005038F81000010A13
:100FC00041EA002083B26088304482B220882844FD
:100FD00081B2484600F021FB6D1CA088A842E6D8EB
:100FE000761CE088B042E0DC0020D7E72DE9FF5F07
:100FF0000C46B1F90450C169904683469A4622884E
:10100000A08800268B88121A3746934206DB628836
:101010004988101A4FF00109814277DA072004B09D
:10102000BDE8F09FBAF1000F72D02188881B01D46F
:101030004A1B33D5701CCDF80090CDE901800844DF
:1010400083B260880021401B82B2584600F0A4FBA6
:10105000CDE900982188681C0390084483B2608819
:101060000021801B82B2584600F096FBCDE9009823
:1010700021880398084483B260880021304482B2FA
:10108000584600F089FBCDE9009821880298084471
:1010900083B260880021284482B233E009EB460124
:1010A000CDF80090CDE901818BB26188491B8AB2ED
:1010B00081B2584600F070FB09EB4500CDE900987D
:1010C00083B203906088801B82B22088401B81B26B
:1010D000584600F061FBCDE90098039883B2608820
:1010E000304482B22088401B81B2584600F054FB45
:1010F000CDE9009860880299284482B220888BB29A
:10110000801B81B2584600F047FB51E061E0FFE7E9
:1011100060884346284482B22088304481B25846D1
:1011200000F07BFA60884346284482B22088801B06
:1011300081B2584600F071FA60884346304482B26A
:101140002088284481B2584600F067FA60884346F8
:10115000304482B22088401B81B2584600F05DFACC
:1011600060884346401B82B22088801B81B258466B
:1011700000F053FA60884346401B82B22088304416
:1011800081B2584600F049FA60884346801B82B21B
:101190002088401B81B2584600F03FFA60884346E1
:1011A000801B82B22088284481B2584600F035FA6C
:1011B000002F07DC761C36B207EB4600401C07B256
:1011C000002F06DD6D1E2DB2684207EB4000401E69
:1011D00007B2B542BFF626AF002020E7C0694088BD
:1011E000704710B5044600688047002802D1E269C4
:1011F0000121117010BD8269084610472DE9FC4796
:10120000C3690C468146988809884FF00008154646
:10121000C446884203D25A88A688B24206D362885E
:10122000904206D25888E388984202D20720BDE84F
:10123000FC87A388E688CF1AA2EB060000D57F4280
:10124000002800DA4042874202DDB4F808C001E01D
:10125000B4F80880994201D0B24210D1581AB31A9A
:1012600000D55B4263449BB2CDE90035002800DA2B
:101270004042404483B2484600F08EFA36E0B8F16E
:10128000000F15D000260FE0B4F90600CDE90005E7
:10129000A0886288304483B22088304481B24846B6
:1012A000FFF7F6FB761CB6B22089B042ECD81DE001
:1012B000BCF1000F14D000260EE0E088304400B2EC
:1012C000CDE900056088A388304482B22188484671
:1012D000FFF7DEFB761CB6B22089B042EDD805E000
:1012E00030B2CDE900054846FFF7D2FB00209EE76B
:1012F0002DE9FE4F814608880C9DADF80800D9F80D
:101300001C0088464C88418828781F46081A934656
:10131000A04202DA0720BDE8FE8F00264FF00A0A3D
:101320002BE00A2A2ED0CDE9004B02AB29464846D5
:1013300000F036FCB95D6878081AC0B220292CD0BC
:10134000696811F8200000BFD9F81C108A88121AA9
:10135000BDF8080082420FDA0D9888B1B8F8000095
:10136000ADF8080028784988B0FBFAF2224402441C
:1013700094B2081AA04203DB761CBA5D002AD0D1D1
:101380000020C8E7B8F80000ADF808002878B0FBE6
:10139000FAF12144084484B2CCE728784008D3E726
:1013A0002DE9FE4F9A468B8815468146581B87B219
:1013B000C8880C46411BDDF830C08EB2012B13D01B
:1013C000012811D0B3EB450F0ED3B0EB450F0BD373
:1013D000D9F81C202188B2F80480884507D25288A9
:1013E000B4F80280424502D20720BDE8FE8FBCF16E
:1013F000000F06D0CDE9000A6288484600F0CCF91B
:1014000050E0ADF800106088ADF802002088A18897
:1014100052460844ADF804006088ADF80600ADF807
:10142000085069464846FFF7E9FE2088ADF80000FD
:10143000608852463044ADF802002088A1880844F4
:10144000ADF80400608869463044ADF806004846AF
:10145000FFF7D4FE2088ADF800006088524628448B
:10146000ADF802002088ADF8040060886946304479
:10147000ADF806004846FFF7C1FE208852463844C2
:10148000ADF80000608869462844ADF80200208865
:101490003844ADF8040060883044ADF80600484692
:1014A000FFF7ACFE0020A0E730B4C5690346A87979
:1014B0006A8810F0010FA8880AD004461046A97166
:1014C00041B101290BD0022904D003290BD106E038
:1014D0001446F4E7DA695480DA69908003E0DA6947
:1014E0005080D86984805A6930BC084610471CB5C2
:1014F000C3695A889B88CDE900210022114600F07B
:101500004BF91CBDC069808870472DE9FF411C461E
:10151000DDE90A7815460E46684600F02DF846EAE1
:10152000450141EA840141EA072242EA0841009A62
:1015300000EB8200C0F80017BDE8FF811CB5002158
:1015400000910B46012201911146FFF7DEFF1CBD01
:1015500001B5684600F010F8009A01219140C0F8EA
:101560000C1508BD01B5684600F014F8009A012179
:101570009140C0F80C1508BD0168202902D24FF037
:10158000A040704701F01F01016001487047000052
:10159000000300500168202902D24FF0A04070479C
:1015A00001F01F0101600148704700000003005076
:1015B00001B56846FFF7E0FF009A01219140C0F8AD
:1015C000081508BD01B56846FFF7E4FF009A012140
:1015D0009140C0F8081508BD4058002800D00120EF
:1015E00070474058002800D00120704708B50022FD
:1015F00042504058009008BDD0F80403084000D085
:10160000012070474058002800D00120704708B5DD
:10161000002242504058009008BDF0B40D46C16908
:1016200014468A884988954208D28C4206D2866838
:1016300021462846B446F0BC1A466047F0BC7047C5
:101640002DE9F041524D86B0524CD5E90301CDE968
:101650000101A068FFF756FF4008ADF80400A0683C
:10166000FFF7BCFD0646A068FFF74CFFB6FBF0F0A5
:10167000ADF80600A068FFF7B1FDADF80800D5E9A8
:101680000501CDE90301A068FFF73CFF4008ADF874
:101690000C00A068FFF7A2FD0546A068FFF732FF27
:1016A000B5FBF0F0ADF80E00A068FFF797FDADF8C0
:1016B00010000121A068FFF7F7FE00252E464DE03F
:1016C000A81CADF80C00ADF80450B01CADF80660D5
:1016D000ADF80E00A068FFF715FFC5F1000800EB9C
:1016E0004800ADF80800A068FFF778FD774200EBEE
:1016F0004700ADF80A00A068FFF704FF00EB4800C0
:10170000001FADF81000A068FFF768FD00EB470070
:10171000001FADF812000020AF19009007EB870002
:101720004300022201A9A068FFF73AFE08B1FEF7C4
:101730000BFF01200090784200EB80004FF6FF7114
:1017400001EB4003022203A9A068FFF729FE08B1BC
:10175000FEF7FAFEAD1D0836ADB2B6B2A068FFF7CF
:10176000D1FE001F00EBD070B5EB600F08DCA06865
:10177000FFF734FD001F00EBD070B6EB600F9FDD6C
:101780000021A068FFF790FE06B0BDE8F0810000E0
:10179000781C000000000020F8B515460246C0691C
:1017A0001C460E46DDE90637818840888E420FD2FE
:1017B00085420DD2891BA14200DA8CB2401B9842AF
:1017C00000DA83B20097D768224629463046B847E8
:1017D000F8BD70B50546C87D0C4600284FF48471ED
:1017E00028460AD0FFF702FFD5F81805627EE168A7
:1017F0008854607E401C607670BDFFF7F7FED5F818
:10180000180570BD1FB501238DF800308DF8081044
:101810000192D0E90012684690471FBD02484CF281
:1018200018618068FFF763BE000000202DE9F041D9
:1018300007461C4615460E462A2000F00AFA380ACA
:1018400000F010FAF8B200F00DFA280A00F00AFAD7
:10185000E8B200F007FA2B2000F0FBF9300A00F0A4
:1018600001FAF0B200F0FEF9200A00F0FBF9E0B254
:1018700000F0F8F9BDE8F0412C2000F0EAB90000D2
:1018800008B500220092CAB2014600230448FFF7BF
:10189000F3FA002803D0BDE80840FEF755BE08BDA6
:1018A000AC7402002DE9F843044610681E46154644
:1018B0000F464FF0000810B1FFF74CFAF8B1A868D6
:1018C00010B1FFF747FAD0B128792968C4F8441558
:1018D000C4F84805287BA968C4F83415C4F838054D
:1018E0004FF48C754046C4F81881D4F81811009153
:1018F000F2074FF0010107D0C4F8501506E087F851
:101900001D801020BDE8F883C4F85005B20702D549
:10191000C4F8401501E0C4F84005300700D4216147
:10192000386848B146F38000401C4FF040000FD0AB
:10193000C4F804030020E5E729462046FFF74CFEE3
:101940000028F9D0B87FFF28F4D0FFF731FEF1E787
:10195000C4F80803EEE770B50C4605464FF48E71E7
:10196000FFF744FEA18AA068415CA08A401CA082C7
:10197000C5F81C1570BD1FB500228DF800208DF82C
:101980000810816801918275D0E90012684690477D
:101990001FBD2DE9FF470C4605464FF40071FFF7C8
:1019A0002BFE01274FF40178002618B34FF49279EB
:1019B00049462846FFF715FEE0B149462846FFF79D
:1019C00015FEC5F80883A07E00B96F6002208DF86F
:1019D0000000D5F88004C5F880040390E07D8DF800
:1019E0000800E0680190E6752676D4E900126846A2
:1019F000904727E004212846FFF7FEFD10B34FF47F
:101A000084712846FFF7EDFDE0B121462846FFF737
:101A1000E0FEE07D617E884214D1207E38B1617E97
:101A2000E268E0752069E0602676667607E0A07ED1
:101A300000B96F60C5F80883E675617EE2682046EC
:101A4000FFF7E0FE4FF48E7841462846FFF7C9FDC8
:101A500088B1A08AA17D884204D221462846FFF79A
:101A60007AFF08E041462846FFF7C0FDA17D11B18D
:101A70002046FFF780FF4FF4A27841462846FFF743
:101A8000B0FD002812D041462846FFF7AFFDA07EEA
:101A900000B12F60E07D002808D0E675617EE26825
:101AA00004B02046BDE8F047FFF7ACBEBDE8FF87B5
:101AB0002DE9FF410C464FF4927705463946FFF772
:101AC000A1FD0026C0B139462846FFF7A0FD02203F
:101AD0008DF80000D5F88004C5F880040390D5F88F
:101AE0003C058DF80800E0680190E6752676D4E99B
:101AF00000126846904724E04FF48877394628461C
:101B0000FFF780FDE8B139462846FFF780FDD5F89C
:101B10003C05C1B2E07D884213D1207E60B1E2680D
:101B2000D5F8000220F02000C5F80002207EE07504
:101B30002069E060267601E0E675E2682046FFF75E
:101B400061FE4FF4A27739462846FFF75BFD68B186
:101B500039462846FFF75BFDE07D38B1E675D5F8DC
:101B60003C05E268C1B22046FFF74CFE4FF4907688
:101B700031462846FFF746FD00280FD0314628465B
:101B8000FFF745FDA07D002808D0D5F84C0504B02E
:101B9000C1B22046BDE8F041FFF7EDBEBDE8FF81D0
:101BA0002DE9FF4F487883B0101AC0B20C46009060
:101BB0004968984611F82000C01D4FEAD009202A34
:101BC00001D0002734E0B8F80000217800EB510084
:101BD0003AE0002628E000250098022101EB800B66
:101BE000109807FB096A384401906168C5F1070243
:101BF00031F80B00A1680144012011F80A1090404F
:101C000001420BD0B8F8000005EBC601084481B2D0
:101C10000198119B82B20398FFF7FFFC6D1CEDB297
:101C2000082DE2D3761CB6B24E45D4D37F1CBFB28A
:101C30002078B842CDD86168009811F82000E1788A
:101C40000144B8F800000844A8F8000007B0BDE857
:101C5000F08F01B52B20FFF785FC01216846FFF7C7
:101C60000FFE08BD01B52B20FFF7ACFC0121684633
:101C7000FFF706FE08BD00000500000000000000A0
:101C80000A00000000000000000002000000000048
:101C900000000200FFFFFFFFFFFFFFFFFFFFFFFF4E
:101CA000FFFFFFFFFFFFFFFFFFFFFFFFFFFFFFFF44
:101CB000FFFFFFFFFFFFFFFFFFFFFFFFFFFFFFFF34
:101CC000FFFFFFFFFFFFFFFFFFFFFFFFFFFFFFFF24
:101CD000FFFFFFFFFFFFFFFFFFFFFFFFFFFFFFFF14
:109AC000FFDFFFFDFFFEFFFFFFFEFFDFFFFEFFFDED
:109AD000FFFEFFFFFFFFFFDFFFFFFFFFFFFFFFFFB7
:109AE000FFFFFFFFFFFFFFFFFFFFFFFFFFFFFFFF86
:109AF000FFFFFFFFFFFFFFFEFFFEFFFFFFFFFFFF78
:109B0000FFFFFFFFFFFFFFFFFFFFFFFFFFFEFFFE67
:109B1000FFFEFFFEFFFFFFDFFFFFFFFFFFFFFFFF77
:109B2000FFFFFFFFFFFFFFFFFFFFFFFFFFFFFFFE46
:109B3000FFFEFFFFFFFFFFFFFFFFFFFFFFFFFFFF36
:109B4000FFFFFFFFFFFFFFFFFFFFFFFFFFFFFFFF25
:109B5000FFFFFFFFFFFFFFFFFFFFFFFFFFFFFFFF15
:109B6000FFFFFFFFFFFFFFFFFFFFFFFFFFFFFFFF05
:109B7000FFFFFFFFFFFFFFFFFFFFFFFFFFFFFFFFF5
:109B8000FFFFFFFFFFFFFFFFFFFFFFFFFFFFFFFFE5
:109B9000FFFFFFFFFFFFFFFFFFFFFFFFFFFFFFFFD5
:109BA000FFFFFFFFFFFFFFFFFFFFFFFFFFFFFFFFC5
:109BB000FFFFFFFFFFFFFFFFFFFFFFFFFFFFFFFFB5
:109BC000FFFFFFFFFFFFFFFFFFFFFFFFFFFFFFFFA5
:109BD000FFFFFFFFFFFFFFFFFFFFFFFFFFFFFFFF95
:109BE000FFFFFFFFFFFFFFFFFFFFFFFFFFFFFFFF85
:109BF000FFFFFFFFFFFFFFFFFFFFFFFFFFFFFFFF75
:109C0000FFFFFFFFFFFFFFFFFFFFFFFFFFFFFFFF64
:109C1000FFFFFFFFFFFFFFFFFFFFFFFFFFFFFFFF54
:109C2000FFFFFFFFFFFFFFFFFFFFFFFFFFFFFFFF44
:109C3000FFFFFFFFFFFFFFFFFFFFFFFFFFFFFFFF34
:109C4000FFFFFFFFFFFFFFFFFFFFFFFFFFFFFFFF24
:109C5000FFFFFFFFFFFFFFFFFFFFFFFFFFFFFFFF14
:109C6000FFFFFFFFFFFFFFFFFFFFFFFFFFFFFFFF04
:109C7000FFFFFFFFFFFFFFFFFFFFFFFFFFFFFFFFF4
:109C8000FFFFFFFFFFFFFFFFFFFFFFFFFFFFFFFFE4
:109C9000FFFFFFFFFFFFFFDEFFFEFFDEFFFFF7FD21
:109CA000FFDFFF9DFFDFF7FFF7DEFFBFFFBFFFDF37
:109CB000FFFFFFDFFFDFFFFFFFDFF7DFFFFFFFDF5C
:109CC000FFDFFFFFFFFEFFFEFFFEF7DFF7BEFFFF38
:109CD000FFDFFFDFF79EF7DEE75AB5F49CF09D311A
:109CE000A552BE15D6D8E73BE75BF7BDF7DEF7BE5A
:109CF000FFDFFFDFFFFFF7DEFFFFF7BEF7DEFFFF4F
:109D0000FFFFFFDFFFFFFFFFF7DEF7BEFFDFFFDF35
:109D1000F7DFF7DFFFDFFFDFFFDFFFFFFFFFFFFF03
:109D2000FFFFFFFFFFFFFFFFFFDFFFDFFFFFFFFF83
:109D3000FFFFFFFFFFFFFFFFFFFFFFFEFFFFFFFF34
:109D4000FFFFFFDFFFDFFFDFFFDFFFFFFFFFFFFFA3
:109D5000FFFFFFFFFFFFFFFFFFFFFFFFFFFFFFFF13
:109D6000FFFFFFFFFFFFFFFFFFFFFFFFFFFFFFFF03
:109D7000FFFFFFFFFFFFFFFFFFFFFFFFFFFFFFFFF3
:109D8000FFFFFFFFFFFFFFFFFFFFFFFFFFFFFFFFE3
:109D9000FFFFFFFFFFFFFFFFFFFFFFFFFFFFFFFFD3
:109DA000FFFFFFFFFFDFFFDFFFDFFFDFFFDFFFDF83
:109DB000FFFFFFDFFFDFFFDFFFDFFFFFFFFFFFFF33
:109DC000FFFFFFFFFFFFFFFFFFFFFFFFFFFFFFFFA3
:109DD000FFFFFFFFFFFFFFFFFFFFFFFFFFFFFFFF93
:109DE000FFFFFFFFFFFFFFFFFFFFFFFFFFDFFFFFA3
:109DF000FFFFFFFFFFFFFFFFFFFFFFFFFFFFFFFF73
:109E0000FFFFFFFFFFFFFFFFFFFFFFFFFFFFFFFF62
:109E1000FFFFFFFFFFFFFFFFFFFFFFFFFFFFFFFF52
:109E2000FFFFFFFFFFFFFFFFFFFFFFFFFFFFFFFF42
:109E3000FFFFFFFFFFFFFFFFFFFFFFFFFFFFFFFF32
:109E4000FFFFFFFFFFFFFFFFFFFFFFFFFFFFFFFF22
:109E5000FFFFFFFFFFFFFFFFFFFFFFFFFFDFFFFF32
:109E6000FFFFFFFFFFFFFFFFFFFFFFFFFFFFFFFF02
:109E7000FFFFFFFFFFFFFFFFFFFFFFDFFFFFF7DE3B
:109E8000FFDEFFFFEF9EEFDEFFFEFFFFFFFFF7BEEF
:109E9000FFDFFFDFF7DFFFFFFFFFFFDEFFFEFFFE5D
:109EA000FFFFFFFFFFFEFFDEFFDFFFFFFFDFFFDF44
:109EB000FFDEFFFFF7DDC6579D319D0F950E7C2A13
:109EC0007C4C7C2C7C0D844E844E94D0AD93B5D5C7
:109ED000C658D6BBEF9CF7DEFFFFFFFEFFFEFFFE7E
:109EE000FFFEF7DEF7DFF7BFF7DFFFDEFFFFF7DE8E
:109EF000FFDFFFFFFFFEFFDFFFFFFFDFF7DFFFFFFB
:109F0000FFFFFFFFFFFFFFFFFFDFFFDFFFDFFFDFE1
:109F1000FFDFFFDFFFDFFFFFFFDFFFFEFFFFFFFFD2
:109F2000FFFFFFFFFFFFFFFEFFFEFFDFFFDFFFDFA3
:109F3000FFDFFFDFFFFFFFFFFFFFFFFFFFFFFFFF71
:109F4000FFFFFFFFFFFFFFFFFFFFFFFFFFFFFFFF21
:109F5000FFFFFFFFFFFFFFFFFFFFFFFFFFFFFFFF11
:109F6000FFFFFFFFFFFFFFFFFFFFFFFFFFFFFFFF01
:109F7000FFFFFFFFFFFFFFFFFFFFFFFFFFFFFFFFF1
:109F8000FFFFFFFFFFFFFFDFFFDFFFDFFFFFFFFF41
:109F9000FFFFFFFFFFFFFFFFFFFFFFFFFFFFFFFFD1
:109FA000FFFFFFFFFFFFFFFFFFFFFFFFFFFFFFFFC1
:109FB000FFFFFFFFFFFFFFFFFFFFFFFFFFFFFFFFB1
:109FC000FFFFFFFFFFFFFFFFFFFFFFFFFFFFFFFFA1
:109FD000FFFFFFFFFFFFFFFFFFFFFFFFFFFFFFFF91
:109FE000FFFFFFFFFFFFFFFFFFFFFFFFFFFFFFFF81
:109FF000FFFFFFFFFFFFFFFFFFFFFFFFFFFFFFFF71
:10A00000FFFFFFFFFFFFFFFFFFFFFFFFFFFFFFFF60
:10A01000FFFFFFFFFFFFFFFFFFFFFFFFFFFFFFFF50
:10A02000FFFFFFFFFFFFFFFFFFFFFFFFFFFFFFFF40
:10A03000FFFFFFFFFFFFFFFFFFFFFFFFFFDFFFFF50
:10A04000FFFFFFFFFFFFFFFFFFFFFFFFFFFFFFFF20
:10A05000FFFFFFFFFFFFFFDFFFDFFFDEF7DEF7BEE3
:10A06000CE56B5929D0F9D50ADD2C676DF19F7DC66
:10A07000F7DEFFDEF7BEF7BEF7BEF7BEFFDFFFDF9E
:10A08000FFDEFFDEFFDFFFDFFFBFF7BFF7BFF7DD5C
:10A09000F7DDD6F894CF9CF09D109D30A57084AD6F
:10A0A0007C4D8CAF7C2D846E6BEC6BEC742C73EC64
:10A0B0006BAB6BAC7BED94B0AD73BE16CE98DF3B53
:10A0C000F7BDF7BDF7BDFFDFFFDFF7DEFFDEFFFE09
:10A0D000FFDEF7BDFFFDFFDEFFDFFFDFFFDEFFFF7F
:10A0E000F7DEF7DEF7DEF7DEFFDFFFDFFFDFFFDFA4
:10A0F000FFDFFFDFFFDFFFFFFFFFFFFFFFFFFFFFD0
:10A10000FFDFFFFFFFFEFFFEFFFEFFDFFFDFFFDFE2
:10A11000FFDFFFFFFFFFFFFFFFFFFFFFFFFFFFFF6F
:10A12000FFFFFFFFFFFFFFFFFFFFFFFFFFFFFFFF3F
:10A13000FFFFFFFFFFFFFFFFFFFFFFFFFFFFFFFF2F
:10A14000FFFFFFFFFFFFFFFFFFFFFFFFFFFFFFFF1F
:10A15000FFDFFFDFFFFFFFFFFFDFFFDFFFFFFFFF8F
:10A16000FFDFFFDFFFDFFFDFFFFFFFDFFFDFFFFFBF
:10A17000FFFFFFFFFFFFFFFFFFFFFFFFFFFFFFFFEF
:10A18000FFFFFFFFFFFFFFFFFFFFFFFFFFFFFFFFDF
:10A19000FFFFFFFFFFFFFFFFFFFFFFFFFFFFFFFFCF
:10A1A000FFFFFFFFFFFFFFFFFFFFFFFFFFFFFFFFBF
:10A1B000FFFFFFFFFFFFFFFFFFFFFFFFFFFFFFFFAF
:10A1C000FFFFFFFFFFFFFFFFFFFFFFFFFFFFFFFF9F
:10A1D000FFFFFFFFFFFFFFFFFFFFFFFFFFFFFFFF8F
:10A1E000FFFFFFFFFFFFFFFFFFFFFFFFFFFFFFFF7F
:10A1F000FFFFFFFFFFFFFFFFFFFFFFFFFFFFFFFF6F
:10A20000FFFFFFFFFFFFFFFFFFFFFFFFFFFFFFFF5E
:10A21000FFFFFFFFFFFFFFFFFFFFFFFFFFDFFFFF6E
:10A22000FFFFFFFFFFFFFFFFFFFFFFFFFFFFFFFF3E
:10A23000FFFFFFFFFFFFFFFFF7DEFFDEF7BEBE14ED
:10A24000AD6E9CED9CCD8C8B73C97C2B73EC8CCF4D
:10A2500094F1A573B5F6CE99E77CEF5CF7BDFFDE10
:10A26000FFFFFFFFFFFFFFDFFFDFF7DFF7DED6D9DE
:10A27000A5738CAD94EE9D4F9D6F9D6F9D717C8EEF
:10A2800084D07C8F7C6E742D742E742D744D7C4D17
:10A2900073EC740C7C0C73EC6BAB636A6BAB73ECA0
:10A2A000844E94B0A553BDF5CE98DF1ADF1AEF7C2B
:10A2B000FFFEFFFEFFDFF7BEFFFFFFFEF7BEF7BEAC
:10A2C000F7DEF7DEF7DEF7DEF7DEFFDEF7DEF7DEDE
:10A2D000FFDEFFDEFFDEFFFEFFFEFFDEFFDEFFDE56
:10A2E000FFDFFFDFFFDFFFDFFFDFFFDFFFDFFFDF7E
:10A2F000FFDFFFDFFFFFFFFFFFFFFFFFFFFFFFFFAE
:10A30000FFFFFFFFFFFFFFFFFFFFFFFFFFFFFFFF5D
:10A31000FFFFFFFFFFFFFFFFFFFFFFFFFFFFFFFF4D
:10A32000FFFFFFFFFFFFFFFFFFFFFFFFFFFFFFFF3D
:10A33000FFDFFFDFFFFFFFFFFFDFFFDFFFDFFFFFCD
:10A34000FFDFFFDFFFFFFFFFFFFFFFDFFFDFFFFF9D
:10A35000FFFFFFFFFFFFFFFFFFFFFFFFFFFFFFFF0D
:10A36000FFFFFFFFFFFFFFFFFFFFFFFFFFFFFFFFFD
:10A37000FFFFFFFFFFFFFFFFFFFFFFFFFFFFFFFFED
:10A38000FFFFFFFFFFFFFFDFFFDFFFFFFFFFFFFF1D
:10A39000FFFFFFFFFFFFFFFFFFFFFFFFFFFFFFFFCD
:10A3A000FFFFFFFFFFFFFFFFFFFFFFFFFFFFFFFFBD
:10A3B000FFFFFFFFFFFFFFFFFFFFFFFFFFFFFFFFAD
:10A3C000FFFFFFFFFFFFFFFFFFFFFFFFFFFFFFFF9D
:10A3D000FFFFFFFFFFFFFFFFFFFFFFFFFFFFFFFF8D
:10A3E000FFFFFFFFFFFFFFFFFFFFFFFFFFFFFFFF7D
:10A3F000FFFFFFFFFFFFFFFFFFFFFFFFFFDFFFDFAD
:10A40000FFFFFFFFFFFFFFFFFFFFFFFFFFFFFFFF5C
:10A41000FFFFFFFFFFFFFFFFF7DEF7DEEF9DBE331D
:10A42000BE2E9D0BA54D94AB844B846C848D742CF7
:10A4300073EB636A5B4A73EC7C4E7C2D94D0B5D38E
:10A44000BE37CE78DEFAEF7BEF9CDEF9AD93846DFC
:10A450009D509D4E952F9D70956F7C8E63AE63B021
:10A46000638F63CE6C0F63AE74316C106BCE740E61
:10A47000740D7C4D73EB73EB73EB740B740B73EB1C
:10A48000740B6B8A6BAA6B896B6A73CC842E8C8F6E
:10A49000AD73C637DEDAE71BEF9CFFFEFFFEFFFE63
:10A4A000FFDEFFFFFFFFFFFFF7DEF7DEFFDEFFDE71
:10A4B000F7DEFFDEFFDEFFDEFFFEFFFEFFDEFFDE7C
:10A4C000FFDFFFDFFFDFF7DFF7DFFFDEFFDEFFDEAF
:10A4D000FFDEFFFEFFFEFFFEFFFEFFFEFFFFFFFFB2
:10A4E000FFFFFFFFFFFFFFFFFFFFFFFFFFFFFFFF7C
:10A4F000FFFFFFFFFFFFFFFFFFFFFFFFFFFFFFFF6C
:10A50000FFFFFFFFFFFFFFFFFFFFFFFFFFFFFFFF5B
:10A51000F7DEFFDFFFFFFFFFFFDFFFDFFFFFFFFFD4
:10A52000FFDFFFDFFFFFFFFFFFFFFFDFFFFFFFFF9B
:10A53000FFFFFFFFFFFFFFFFFFFFFFFFFFFFFFFF2B
:10A54000FFFFFFFFFFFFFFFFFFFFFFFFFFFFFFFF1B
:10A55000FFFFFFFFFFFFFFFFFFFFFFFFFFFFFFFF0B
:10A56000FFFFFFFFFFFFFFFFFFFFFFFFFFFFFFFFFB
:10A57000FFFFFFFFFFFFFFFFFFFFFFFFFFFFFFFFEB
:10A58000FFFFFFFFFFFFFFFFFFFFFFFFFFFFFFFFDB
:10A59000FFFFFFFFFFFFFFFFFFFFFFFFFFFFFFFFCB
:10A5A000FFFFFFFFFFFFFFFFFFFFFFFFFFFFFFFFBB
:10A5B000FFFFFFFFFFFFFFFFFFFFFFFFFFFFFFFFAB
:10A5C000FFFFFFFFFFFFFFFFFFFFFFFFFFFFFFFF9B
:10A5D000FFFFFFFFFFFFFFFFFFFFFFFFFFFFFFFF8B
:10A5E000FFFFFFFFFFFFFFFFFFFFFFDFFFFFFFFF9B
:10A5F000FFFFFFDFFFDFFFDFFFFFFFFEDF1ABE14FD
:10A60000BE50A58E9D4D950E8CCF848D7C6C744B69
:10A610007C6D7C4C7C4D7C6D742C73EB73EB73EA1E
:10A6200073EB7C0C7C0C8C6D9D0F8C8D8CAD8CAD8C
:10A63000952E8D2E9D9084CF6C3053504B115352DC
:10A64000533153315371533153515B715B4F636ECF
:10A650006BCE6BCD6BAC6BCC6BCC6BEB6BEB742CB8
:10A66000740B73EA73EA73EB73CA73CB73CB73CA5D
:10A6700063686B897BEB7C0D8C8F9CF1AD94BE166F
:10A68000CE78DF1BEF7CF7DEF7BEFFFFFFFFFFFF9B
:10A69000FFFEFFDEFFDFFFDFFFDFFFDFFFDFF7BED5
:10A6A000FFFFFFDFFFDFFFFFFFFFF7DEFFDFFFFF43
:10A6B000FFFFFFDEFFFFFFFFFFDFFFDEFFFFFFFF0C
:10A6C000FFFFFFFFFFFFFFFFFFFFFFFFFFFFFFFF9A
:10A6D000FFFFFFDFFFDFFFFFFFFFFFFFFFFFFFFFCA
:10A6E000FFFFFFFFFFDFFFFFFFFFFFFFFFFFFFFF9A
:10A6F000FFDFFFDFFFFFFFFFFFFFFFFFFFFFFFFFAA
:10A70000FFFFFFFFFFDFFFDFFFDFFFDFFFDFFFFFF9
:10A71000FFFFFFFFFFFFFFFFFFDFFFFFFFFFFFFF69
:10A72000FFDFFFDFFFFFFFFFFFFFFFFFFFFFFFFF79
:10A73000FFFFFFFFFFFFFFFFFFFFFFFFFFFFFFFF29
:10A74000FFFFFFFFFFFFFFFFFFFFFFFFFFDFFFDF59
:10A75000FFDFFFDFFFFFFFFFFFFFFFFFFFFFFFFF49
:10A76000FFFFFFFFFFFFFFFFFFFFFFFFFFFFFFFFF9
:10A77000FFFFFFFFFFFFFFFFFFFFFFFFFFFFFFFFE9
:10A78000FFFFFFFFFFFFFFFFFFFFFFFFFFFFFFFFD9
:10A79000FFFFFFFFFFFFFFFFFFFFFFFFFFFFFFFFC9
:10A7A000FFFFFFFFFFFFFFFFFFFFFFFFFFFFFFFFB9
:10A7B000FFFFFFFFFFFFFFFFFFFFFFFFFFDFFFFFC9
:10A7C000FFFFFFFFFFFFFFFFFFFFFFFFFFFFFFFF99
:10A7D000FFFFFFFFFFFFFFDFF7BEFFFECE77BE529A
:10A7E000A5B184D16C30745274317450845094B2D9
:10A7F0007C6F744E744E742E744E7C6E848E742CEA
:10A800007C2A844A8C8B94AB94CC94CC94CD94EEDB
:10A81000952E955284D05BAF533153335BB34B309D
:10A820005B9153725B9253725B9253515B50639195
:10A830006BB16B916B8E6B8E636D638D638D638C6F
:10A84000636B73ED73ED73EB740B73EA6BCA6BCAD6
:10A8500073EA73EB7C2B7C2C7C4D740C73EC6BAB30
:10A8600073EC7C0D844E9CF1B5B5BE17D6B9E73AB2
:10A87000F79CF7DDFFFEFFFEFFDEFFFFFFDFFFFFC0
:10A88000F7DEFFFFFFFEFFFEFFFEFFFFFFFFFFFF04
:10A89000FFFFFFDFF7BFF7DFFFDFFFDFFFDFFFDFD8
:10A8A000FFFFFFFFFFFFFFFFFFFFFFDFFFFFFFFFD8
:10A8B000FFDFFFFFFFDFFFFFFFFFFFFFFFFFFFFFE8
:10A8C000FFFFFFFFFFDFFFFFFFFFFFFFFFFFFFFFB8
:10A8D000FFFFFFDFFFFFFFDFFFFFFFFFFFFFFFFFC8
:10A8E000FFFFFFFFFFDFFFDFFFDFFFDFFFDFFFFF18
:10A8F000FFFFFFFFFFFFFFFFFFFFFFFFFFFFFFFF68
:10A90000FFFFFFFFFFFFFFFFFFFFFFFFFFFFFFFF57
:10A91000FFFFFFFFFFFFFFFFFFFFFFFFFFFFFFFF47
:10A92000FFFFFFFFFFFFFFDFFFFFFFFFFFFFFFFF57
:10A93000FFFFFFFFFFFFFFFFFFFFFFFFFFFFFFFF27
:10A94000FFFFFFFFFFFFFFFFFFFFFFFFFFFFFFFF17
:10A95000FFFFFFFFFFFFFFFFFFFFFFFFFFFFFFFF07
:10A96000FFFFFFFFFFFFFFFFFFFFFFFFFFFFFFFFF7
:10A97000FFFFFFFFFFFFFFFFFFFFFFFFFFFFFFFFE7
:10A98000FFFFFFFFFFFFFFFFFFFFFFFFFFFFFFFFD7
:10A99000FFFFFFFFFFFFFFFFFFFFFFFFFFDFFFFFE7
:10A9A000FFFFFFFFFFFFFFFFFFFFFFFFFFFFFFFFB7
:10A9B000FFFFFFFFFFDFFFFFF7DEF7BDBE56BE73F1
:10A9C00074705BD3539353725B925B9063916B9102
:10A9D00063B06BD06C1174316C1074307C506C0EA1
:10A9E000848E8CAE8CAC8CAA94EB8CAA9D4F94F187
:10A9F00084916BF14B0F5BB253715371537153518F
:10AA0000537153515351535153715B715B50639167
:10AA10005B315AF0637163505B2F5B2F636F5B0E8A
:10AA20006B8F636E73B0634D6B8D636C6B8C6BADB2
:10AA30006B8C73ED740D740B7C4C7C4C7C2C740B08
:10AA40007C2C7C0C73EB63696B8C73CC7C0C7C0C66
:10AA50009CEFAD72C635D6D8DF1ADF3AE77BF7DD5B
:10AA6000FFFEF7FEF7DEF7DEFFFFF7DFFFDFFFDFBA
:10AA7000FFDFFFDFFFFFFFDFFFFFFFFFFFFFFFFF46
:10AA8000FFDFF7DEFFDFFFDFFFDFFFDFFFDFFFDFDF
:10AA9000FFDFFFDFFFDFFFFFFFFFFFFFFFFFFFDF46
:10AAA000FFDFFFDFFFFFFFDFFFDFFFFFFFFFFFFF36
:10AAB000FFFFFFFFFFDFF7DEFFFFFFFFFFFFFFFFEF
:10AAC000FFFFFFDFFFFFFFFFFFFFFFDFFFDFFFFFF6
:10AAD000FFFFFFFFFFFFFFFFFFFFFFFFFFFFFFFF86
:10AAE000FFFFFFFFFFFFFFFFFFFFFFFFFFFFFFFF76
:10AAF000FFFFFFFFFFFFFFFFFFFFFFFFFFFFFFFF66
:10AB0000FFFFFFFFFFFFFFDFFFFFFFFFFFFFFFFF75
:10AB1000FFFFFFFFFFFFFFFFFFFFFFFFFFFFFFFF45
:10AB2000FFFFFFFFFFFFFFFFFFFFFFFFFFFFFFFF35
:10AB3000FFFFFFFFFFFFFFFFFFFFFFFFFFFFFFFF25
:10AB4000FFFFFFFFFFFFFFFFFFFFFFFFFFFFFFFF15
:10AB5000FFFFFFFFFFFFFFFFFFFFFFFFFFFFFFFF05
:10AB6000FFFFFFFFFFFFFFFFFFFFFFFFFFFFFFFFF5
:10AB7000FFFFFFFFFFFFFFFFFFFFFFFFFFDFFFFF05
:10AB8000FFDFFFFFFFFFFFFFFFFFFFFFFFFFFFFFF5
:10AB9000FFFFFFFFFFDFFFDFFFFFDF3AC6759574A2
:10ABA0005392647564135BB1535063B15B4F63910F
:10ABB000639263925B515B915B715B7063D06C10CD
:10ABC0006C1174307C4F8CAE952E9D509D526BCF86
:10ABD0005B505BB25B935B7353705BB153515353E8
:10ABE0004AF14AD05B715B315330530F5B50532FA6
:10ABF0005B50530F5B1052F052F05310530F5B3009
:10AC000063715B10631073D363505B0F5B2E6BB08B
:10AC100052EC6BAE636C6BAD6BCD638C740E6BCC16
:10AC20007C2D7C2D7C4D6BCB740C73EB73CA7C2B11
:10AC3000846C9D0FB5D3ADB3AD93B5F29D108C8EE2
:10AC40009D11C657DEFAF7BDF7DEF7DEFFFEFFFE09
:10AC5000F7DEF7BEFFFFFFDFFFDFFFDFF7DEFFDF1F
:10AC6000FFDFFFDFFFDFFFDFFFDFFFDFFFDFFFDEF5
:10AC7000FFDEFFDEFFFFFFDEFFFFFFFFFFFFFFDF67
:10AC8000FFDFFFDFFFDFFFDFFFDFFFDFFFFFFFFF94
:10AC9000FFFFFFDFFFFFFFDFFFFFFFFFFFFFFFFF04
:10ACA000FFDFFFDFFFDFFFFFFFFFFFDFFFDFFFFF54
:10ACB000FFFFFFFFFFFFFFFFFFFFFFFFFFFFFFFFA4
:10ACC000FFFFFFFFFFFFFFFFFFFFFFFFFFFFFFFF94
:10ACD000FFFFFFFFFFFFFFFFFFFFFFFFFFFFFFFF84
:10ACE000FFFFFFFFFFFFFFDFFFFFFFFFFFFFFFFF94
:10ACF000FFFFFFFFFFFFFFFFFFFFFFFFFFFFFFFF64
:10AD0000FFFFFFFFFFFFFFFFFFFFFFFFFFFFFFFF53
:10AD1000FFFFFFFFFFFFFFFFFFFFFFFFFFFFFFFF43
:10AD2000FFFFFFFFFFFFFFFFFFFFFFFFFFFFFFFF33
:10AD3000FFFFFFFFFFFFFFFFFFFFFFFFFFFFFFFF23
:10AD4000FFFFFFFFFFFFFFFFFFFFFFFFFFFFFFFF13
:10AD5000FFFFFFFFFFFFFFFFFFFFFFFFFFDFFFDF43
:10AD6000FFFFFFFFFFDFFFFFFFFFFFFFFFFFFFFF13
:10AD7000FFFFFFFFFFDFF7BEFFFEC677C6556CD0B3
:10AD80005BF45BF353508CD563916BF263B263B3A6
:10AD90005B915B925B925B925B725B925B505B50F0
:10ADA00053705B915B705B6F6BCF6BCF63AF5BB0CE
:10ADB0005BD153515BB1539053924B105B92535004
:10ADC0006BF29517637152EF63925B5153305330BE
:10ADD00052EF4AEE4AAE4AAE4ACE52EE52CE5B2F08
:10ADE00052EF5AEF633052CE5B1052CF94F67C5341
:10ADF00094F4636E73F06B8F52EE634E5B0D5B2CBD
:10AE0000636D634B6BAD73CD7C0C73EB7C0B7C0A79
:10AE10008C8CA54FADD29D319D52A5729D117C0D9C
:10AE20006B8B6BAB73AC7C0D8C8F9D12AD74C65766
:10AE3000DF1AEF5BEF7CF79DF7DEFFFEFFDFFFDF42
:10AE4000FFDFFFDFF7DEF7DEFFDEFFDFFFDEF7DE2F
:10AE5000FFDEFFDEFFFFF7DEF7DEF7DEF7DEFFDF08
:10AE6000FFDFFFDFFFFFFFDFF7DEFFDFFFFFFFFF9B
:10AE7000FFDFFFDFFFFFFFFFFFFFFFFFFFFFFFFF22
:10AE8000FFDFFFDFFFFFFFFFFFFFFFFFFFFFFFDF32
:10AE9000FFDFFFDFFFFFFFFFFFFFFFFFFFFFFFFF02
:10AEA000FFDFFFFFFFFFFFFFFFFFFFFFFFFFFFFFD2
:10AEB000FFFFFFFFFFFFFFFFFFFFFFFFFFFFFFFFA2
:10AEC000FFFFFFFFFFFFF7DEFFDFFFFFFFFFFFFFDB
:10AED000FFDFFFDFFFFFFFFFFFFFFFFFFFFFFFFFC2
:10AEE000FFFFFFFFFFFFFFFFFFFFFFFFFFFFFFFF72
:10AEF000FFFFFFFFFFFFFFFFFFFFFFFFFFFFFFFF62
:10AF0000FFFFFFFFFFFFFFFFFFFFFFFFFFFFFFFF51
:10AF1000FFFFFFFFFFFFFFFFFFFFFFFFFFFFFFFF41
:10AF2000FFFFFFFFFFFFFFFFFFFFFFFFFFFFFFFF31
:10AF3000FFFFFFFFFFFFFFFFFFFFFFFFFFFFFFFF21
:10AF4000FFFFFFFFFFFFFFFFFFFFFFFFFFFFFFDF31
:10AF5000FFDEFFFFF7DFEF9DF7BDBE57B6545C3352
:10AF60005C1363F342CEA5B8A597ADF99D795B72EA
:10AF70005B925B92639263925B715B925BB35BD219
:10AF80005BB24B0E63B06C3163F15B915351533044
:10AF90005B6F5BB35B925371537153525B725B7027
:10AFA0007C93AE395B6FB63AB63A5B50639252EF20
:10AFB00052EF5B4F52EF52EE42AC426C52F052F005
:10AFC000530F4AAE52EF52CF428C8CB4C65BC67B55
:10AFD0009D15AD97ADB8B5F9638FA59794F4634F00
:10AFE000845473D2634F5B0E52EC634D52CB73CFDC
:10AFF000844FAD929D6F9D4EB612A591B61294ED01
:10B00000844C7C0B844B7C2B73EA73EA73EB6BAB45
:10B01000740D846E84AF9511ADB4BE36D6FAE75C7C
:10B02000EF9DFFFFFFFFF7FFF7DFFFFFF7DEF7BE44
:10B03000F7BEF7DEFFDEFFDEFFFEF7DEFFFEF7BE48
:10B04000FFDFF7DEF7BEF7DFF7BFFFFFFFFEFFFD15
:10B05000FFFFFFFFF7FEFFFEFFDFFFDFFFDFFFFF6A
:10B06000FFFFFFFFFFFFFFFFFFDFFFFFFFFFFFFF10
:10B07000FFFFFFFFFFFFFFFFFFFFFFFFFFFFFFFFE0
:10B08000FFFFFFFFFFFFFFFFFFFFFFFFFFFFFFFFD0
:10B09000FFFFFFFFFFFFFFFFFFFFFFFFFFFFFFFFC0
:10B0A000FFFFFFFFFFFFFFFFFFFFFFFFFFFFFFFFB0
:10B0B000FFFFFFFFFFFFFFFFFFFFFFFFFFFFFFFFA0
:10B0C000FFFFFFFFFFFFFFFFFFFFFFFFFFFFFFFF90
:10B0D000FFFFFFFFFFFFFFFFFFFFFFFFFFFFFFFF80
:10B0E000FFFFFFFFFFFFFFFFFFFFFFFFFFFFFFFF70
:10B0F000FFFFFFFFFFFFFFFFFFFFFFFFFFFFFFFF60
:10B10000FFFFFFFFFFFFFFFFFFFFFFFFFFFFFFFF4F
:10B11000FFFFFFFFFFFFFFFFFFFFFFFFFFFFFFFF3F
:10B12000FFFFFFFFFFFFFFFFFFFFFFFFFFFFFFDF4F
:10B13000FFDFFFFFF7DEFFFFE71AC676959353F3B5
:10B1400053F35BD363B29D579D76A5B78D165350CD
:10B1500053725B725B715B715B7053515B925371A5
:10B1600063B19D56D6FBE77DE79ECEDC8CF663B2DD
:10B170005B925B925B924B304B315B925B72537094
:10B180009536A5B86BF1BE5BCF1D63B1ADBA533038
:10B19000426DB63B637163908CF56BB14AAF4ACF99
:10B1A0004ACF4AAE4ACF4AAF426C7C5273F1849484
:10B1B0009D769D55B618ADF7A596C67AD6FC636FF9
:10B1C00084549D1695157C319D166BB07C325AEED9
:10B1D00073D16B6D6BAD6BCD740F8CD09D3194CFF3
:10B1E00073AC844E7C2C8C8D846D8C6E844D844D20
:10B1F000740C6BCB6BAB73EC6BCC6BCC740C7C4D6D
:10B2000094F0A572ADD4CE97DF19E75BF7BDF7BE1A
:10B21000FFDEFFDFFFFFF7DFFFDFF7BFFFDFFFFE30
:10B22000FFFEFFFEFFDFF7DFFFDFF7BFFFDFFFDE21
:10B23000FFFFFFFFFFFEFFFEFFFFFFDFFFDFFFFF60
:10B24000FFFFFFFFFFFFFFFFFFDFFFFFFFFFFFFF2E
:10B25000FFFFFFFFFFFFFFFFFFFFFFFFFFFFFFFFFE
:10B26000FFFFFFFFFFFFFFFFFFFFFFFFFFFFFFFFEE
:10B27000FFFFFFFFFFFFFFFFFFFFFFFFFFFFFFFFDE
:10B28000FFFFFFFFFFFFFFFFFFFFFFFFFFFFFFFFCE
:10B29000FFFFFFFFFFFFFFFFFFFFFFFFFFFFFFFFBE
:10B2A000FFFFFFFFFFFFFFFFFFFFFFFFFFFFFFFFAE
:10B2B000FFFFFFFFFFFFFFFFFFFFFFFFFFFFFFFF9E
:10B2C000FFFFFFFFFFFFFFFFFFFFFFFFFFFFFFFF8E
:10B2D000FFFFFFFFFFFFFFFFFFFFFFFFFFFFFFFF7E
:10B2E000FFFFFFFFFFFFFFFFFFFFFFFFFFFFFFFF6E
:10B2F000FFFFFFFFFFFFFFFFFFFFFFFFFFFFFFFF5E
:10B30000FFFFFFFFFFFFFFFFFFFFFFFFFFFFFFDF6D
:10B31000FFDFFFFEF7FEFFDFCE57BE54745153D35D
:10B3200053B35B9284D69D9774117C9284B44B0E78
:10B3300053715B7153505B715B915B525B717C53DA
:10B34000CE9BF7BFFFBFFFBDFFDEFFDEEFDF951631
:10B3500053525BB2535153715BB2539153715BB112
:10B3600084B56BF274129D568CD44AEE8CF674132D
:10B3700063B1BE5B4ACE7433B63B84B653105310F0
:10B380004AEF52EF4AAF4AD0530F3A6C4ACE42AE20
:10B39000532F4ACD5B4E74116BF17C739D7752CD68
:10B3A0009D359515A596B6178493B619AD97845318
:10B3B0009D368C9484537C1394F7530D6BAF632D9F
:10B3C0006B6E6B6E634C634C6B8D842F73EE7C2EB7
:10B3D000846E848F846F7C4E742D7C4C7C4C7C4CB2
:10B3E000742C6BEB73EC7C2D740C846E8CAF9D1104
:10B3F000B5F5D6B9D6F9E73BEF9CF7BEFFFFFFFEE8
:10B40000FFFEFFFFFFFEF7BEF7DEF7DEFFFFFFBF29
:10B41000FFFEFFFFFFFFFFFFFFFEFFFFFFDFFFDF7E
:10B42000FFFFFFFFFFFFFFDFFFDFFFFFFFFFFFFF6C
:10B43000FFFFFFFFFFFFFFFFFFFFFFFFFFFFFFFF1C
:10B44000FFFFFFFFFFFFFFFFFFFFFFFFFFFFFFFF0C
:10B45000FFFFFFFFFFFFFFFFFFFFFFFFFFFFFFFFFC
:10B46000FFFFFFFFFFFFFFFFFFFFFFFFFFFFFFFFEC
:10B47000FFFFFFFFFFFFFFFFFFFFFFFFFFFFFFFFDC
:10B48000FFFFFFFFFFFFFFFFFFFFFFFFFFFFFFFFCC
:10B49000FFFFFFFFFFFFFFFFFFFFFFFFFFFFFFFFBC
:10B4A000FFFFFFFFFFFFFFFFFFFFFFFFFFFFFFFFAC
:10B4B000FFFFFFFFFFFFFFFFFFFFFFFFFFFFFFFF9C
:10B4C000FFFFFFFFFFFFFFFFFFFFFFFFFFFFFFFF8C
:10B4D000FFFFFFFFFFFFFFFFFFFFFFFFFFDFFFFF9C
:10B4E000FFFFFFDFFFFFFFFFFFFFFFFFFFFFFFFF8C
:10B4F000FFDFFFDFFFFEF79EBE14B61363B15BD321
:10B500004B515B927453A5B78D1495357C934B0EBC
:10B51000533053514B305B7253305B736392C69A16
:10B52000F7BFFFDFF7BEF79DFFBEFFDED6F98491C0
:10B530006BF263F353715371535153505BB15371B9
:10B540004AF04B0F5B4F74125B6F63B0530E5B504E
:10B550007C5384936BB2BE7C9D78637153315330BE
:10B56000530F5B515B3153104AEE53504AD0533165
:10B570004AAF428F42AF428F322D4ACE4AAE3A2B6B
:10B580006BAF8CD4636F95568CF495348CF3BE59A5
:10B590008492ADB6B5F8ADD8849484D4C69B7C11A2
:10B5A000A5576BB173D15B0E5AEE6B905B0D6B8E32
:10B5B000636E6BCF7C50742F84907C4E7C4F84B034
:10B5C0007C2F84907C2E7C6F742D84AF6BEB740B7E
:10B5D0006BEB6BCA7C2C846D950FA571C675D6B9C3
:10B5E000DF1BE77CF7BDFFFDFFFDFFFDFFFEFFDF7B
:10B5F000FFFEFFFFFFDFFFDFFFDFFFFEFFFEFFDFDE
:10B60000FFDFFFDFFFFFFFFFFFFFFFDFFFDFFFDFEA
:10B61000FFDFFFDFFFDFFFFFFFFFFFFFFFFFFFFF9A
:10B62000FFFFFFFFFFFFFFFFFFFFFFFFFFFFFFFF2A
:10B63000FFFFFFFFFFFFFFFFFFFFFFFFFFFFFFFF1A
:10B64000FFFFFFFFFFFFFFDFFFFFFFFFFFFFFFFF2A
:10B65000FFDFFFDFFFFFFFFFFFFFFFFFFFFFFFFF3A
:10B66000FFFFFFFFFFFFFFFFFFFFFFFFFFFFFFFFEA
:10B67000FFFFFFFFFFFFFFFFFFFFFFFFFFFFFFFFDA
:10B68000FFFFFFFFFFFFFFFFFFFFFFFFFFFFFFFFCA
:10B69000FFFFFFFFFFFFFFFFFFFFFFFFFFFFFFFFBA
:10B6A000FFFFFFFFFFFFFFFFFFFFFFFFFFFFFFFFAA
:10B6B000FFFFFFFFFFFFFFFFFFFFFFFFFFDFFFFFBA
:10B6C000FFFFFFDFFFFFFFFFFFFFFFFFF7DFFFFED3
:10B6D000FFFEFFDFFFFFDED9C6559D5263B263D385
:10B6E00053506BF29536A597C6BB8CD463B15B50B3
:10B6F00053315B515350535153516BB36BB0BE3701
:10B70000F7BEFFFFF7FFF7FFF7BECE387C0C8CEFDC
:10B71000849153715B92537153504B3053705371FA
:10B720005B925351BE9CA597A5D8A5D89D778CD583
:10B730008CD56BD15B70743363B25B515B5153300A
:10B74000531053105B326391428C5B50743484D538
:10B750005B6F531152F152F1531142AE426E4ACE19
:10B760004ACD4AAE426E3A4D4ACF52EE63906BD00C
:10B77000C69A95347C71B6397432C6DB8D14A596A1
:10B78000ADD884739D56A5978CB494D484537C33E0
:10B790008453847352ED7411638F6390638E6BEFE7
:10B7A00074307C717C91744F7C8F7C6E7CAF744D57
:10B7B0006BEC7C6D7C6E742C846E742D740C740D2B
:10B7C0007C2E8C909D12A552C676CE56EF3BF79DEF
:10B7D000FFDEFFFEFFFFFFDFF7BFFFDEFFFEFFFF25
:10B7E000FFDFFFFFFFFFFFFFFFFFFFFFFFFFFFFF89
:10B7F000FFFFF7DEFFDFFFDFFFFFFFFFFFFFFFFFC2
:10B80000FFFFFFFFFFFFFFFFFFFFFFFFFFFFFFFF48
:10B81000FFFFFFFFFFFFFFFFFFFFFFFFFFFFFFFF38
:10B82000FFFFFFFFFFFFFFDFFFFFFFFFFFFFFFFF48
:10B83000FFFFFFFFFFFFFFFFFFFFFFFFFFFFFFFF18
:10B84000FFFFFFFFFFFFFFFFFFFFFFFFFFFFFFFF08
:10B85000FFFFFFFFFFFFFFFFFFFFFFFFFFFFFFFFF8
:10B86000FFFFFFFFFFFFFFFFFFFFFFFFFFFFFFFFE8
:10B87000FFFFFFFFFFFFFFFFFFFFFFFFFFFFFFFFD8
:10B88000FFFFFFFFFFFFFFFFFFFFFFFFFFFFFFFFC8
:10B89000FFFFFFFFFFFFFFFFFFFFFFFFFFDFFFFFD8
:10B8A000FFFFFFDFFFFFFFFFFFFFFFFFF7FFFFFED1
:10B8B000FFFFFFBFFFDEC656C6757C71639263B2A1
:10B8C00063916BD1741173D084728CB55B505B1033
:10B8D000639263925B915B915B705B7084516B6967
:10B8E000840DB5D5D6D9BE367BEE630A846C8D0F38
:10B8F000743163F35BB253715351535153715330ED
:10B900004B0F6C13BE9C6BD1AE19638FADF9B6199A
:10B91000B63AADF9ADF9532F53305B515310533054
:10B920005330531063734AAF8CD69D5984759D95DF
:10B93000CEFA532E4AAE53306BF384B67C55533156
:10B94000426E426E4AB052F0426E3A6E3A6D3A4CD6
:10B9500073F263B1322B5B504AEE84D463B08493AC
:10B96000B5F99D35ADD7BE79C699ADB773F0847280
:10B97000A5779516ADB8A598743384948493638F96
:10B98000534E74325B4E6BD074307C7174507C912A
:10B990007CB1744F7C6F744F744E7C4F8490846D77
:10B9A0007C2C7C4D846E846E7C0D7C0D8C6EDED880
:10B9B000FFFEFFFEFFFEFFDFF7BFF7DEFFFEFFFF2C
:10B9C000FFDFFFDFFFFFFFFFFFFFFFDFFFDFFFDF27
:10B9D000FFDFF7DEFFDFFFDFFFFFFFFFFFFFFFFF00
:10B9E000FFFFFFFFFFFFFFFFFFFFFFFFFFDFFFFF87
:10B9F000FFFFFFDFFFFFFFFFFFFFFFFFFFFFFFFF77
:10BA0000FFFFFFFFFFFFFFDFFFFFFFFFFFFFFFDF86
:10BA1000FFDFFFDFFFFFFFFFFFFFFFFFFFFFFFFF76
:10BA2000FFFFFFFFFFFFFFFFFFFFFFFFFFFFFFFF26
:10BA3000FFFFFFFFFFFFFFFFFFFFFFFFFFFFFFFF16
:10BA4000FFFFFFFFFFFFFFFFFFFFFFFFFFFFFFFF06
:10BA5000FFFFFFFFFFFFFFFFFFFFFFFFFFFFFFFFF6
:10BA6000FFFFFFFFFFFFFFFFFFDFFFFFFFFFFFFF06
:10BA7000FFDFFFFFFFFFFFFFFFFFFFFFFFFFFFDF16
:10BA8000FFDFFFFFFFFFFFFFFFFFFFFFFFFEF7DF0F
:10BA9000FFFFF7BEF7BDC635BE356BD063716BB225
:10BAA0006BB195156BD073F15B2E635063516B9244
:10BAB000635063705B4F63905B90530E8CB17C2B33
:10BAC0005AE65AE84A874A8662E883EB8C8C8D52A4
:10BAD00043105B9253315B7153515B525B72533035
:10BAE0005B70B63A7C73B65AB6397C729D56951522
:10BAF000530E7C73AE1A5B505B515331533153304C
:10BB0000535153114AD08CD784755B314AEFBEB97B
:10BB1000D77BB63A7C5484947C755B507C747C559E
:10BB200052F06BD3A5B874327C745B50532F530F13
:10BB30004AAE42AE3A6E428E3A4D3A6D3A4D3A4D69
:10BB40004A8D52EE63907C328472AD984AAC847216
:10BB5000ADD763AFBE7BA5B7BE7A95549537A5D94F
:10BB6000530F53305B725B51533063925B505B7089
:10BB700063D16BF074316C0F7C907C6F84D07C8EC1
:10BB80008CEF84AF7C6D848E848E8CCE848CA58F5C
:10BB9000EF9CF7DEFFDFFFDFFFDFFFDFFFDFFFDF11
:10BBA000FFFFFFFFFFFFFFFFFFFFFFFFFFFFFFFFA5
:10BBB000FFFFFFDFFFDFFFDFFFFFFFFFFFFFFFFFF5
:10BBC000FFDFFFFFFFFFFFFFFFFFFFFFFFDFFFFFC5
:10BBD000FFFFFFFFFFFFFFFFFFFFFFDFFFDFFFFFB5
:10BBE000FFFFFFFFFFFFFFFFFFFFFFDFFFDFFFFFA5
:10BBF000FFFFFFFFFFFFFFFFFFFFFFFFFFFFFFFF55
:10BC0000FFFFFFFFFFFFFFFFFFFFFFFFFFFFFFFF44
:10BC1000FFFFFFFFFFFFFFFFFFFFFFFFFFFFFFFF34
:10BC2000FFFFFFFFFFFFFFFFFFFFFFFFFFFFFFFF24
:10BC3000FFFFFFFFFFFFFFFFFFFFFFFFFFFFFFFF14
:10BC4000FFFFFFFFFFFFFFFFFFFFFFFFFFFFFFFF04
:10BC5000FFDFFFFFFFFFFFFFFFFFFFFFFFDFFFFF34
:10BC6000FFFFFFDFFFFFFFFFFFFFFFFFFFFEF7DF2D
:10BC7000FFFFFFFEDEB9CE9594F163715B506B71EF
:10BC800063509D3694F4DF1D9D365B2F637073D235
:10BC90006B9173B163905B505B4F6371636E94F112
:10BCA0005B495B0952E863496329846E848F63D0E2
:10BCB0004B335B5153505B515B515B525B325B7159
:10BCC0005B6FC6BB63B0ADF98CD4B6199D7684B4F6
:10BCD000532EA5B874335B715331533153515330E4
:10BCE000531053314AAFADD9530E5B717454CF3DED
:10BCF000955684B56BD25B714AAF42AD5B6EA5B70A
:10BD00005B5095369555B67995357C93ADF99D7711
:10BD100074537C7495384B0F6BD242AE531052CF94
:10BD2000426E3A0D426E52AF633173D34A8E635006
:10BD3000639052EE84946BD09DB6A5D6AE1A9D78D2
:10BD400042CE63B2535163B35B315B5153315331D4
:10BD5000639253106391532E638F638F743073F02B
:10BD600074107C507C507C4F848F848D8CED954C6E
:10BD7000C677F7DEF7BFF7BEFFFEF7FFFFFFFFDF77
:10BD8000FFFFFFFFFFFFFFDFFFDFFFFFFFFFFFFF03
:10BD9000FFDFFFFFFFDFFFFFFFDFFFFFFFFFFFFF13
:10BDA000FFFFFFFFFFFFFFFFFFFFFFFFFFDFFFFFC3
:10BDB000FFFFFFFFFFFFFFFFFFFFFFDFFFFFFFFFB3
:10BDC000FFFFFFFFFFFFFFFFFFFFFFDFFFDFFFFFC3
:10BDD000FFFFFFFFFFFFFFFFFFFFFFFFFFFFFFFF73
:10BDE000FFFFFFFFFFFFFFFFFFFFFFFFFFFFFFFF63
:10BDF000FFFFFFFFFFFFFFFFFFFFFFFFFFFFFFFF53
:10BE0000FFFFFFFFFFFFFFFFFFFFFFFFFFFFFFFF42
:10BE1000FFFFFFFFFFFFFFFFFFFFFFFFFFFFFFFF32
:10BE2000FFFFFFFFFFFFFFFFFFFFFFFFFFFFFFFF22
:10BE3000FFFFFFFFFFFFFFFFFFFFFFFFFFDFFFFF32
:10BE4000FFFFFFFFFFDFFFDFFFDFFFDFFFFEF7DFAB
:10BE5000F7FFFFFEBDF5C67473EF5B32634F6331CE
:10BE60006BB1A556A5768CB4634F632F73B1634F46
:10BE7000635163516B716B92637163725B30847257
:10BE80006BEF63AD4B0A534A638D6BF0638E5B2F90
:10BE9000635263715B715B505B305B515B5163B2AA
:10BEA0008493B619849363B0530D9D579D56ADF995
:10BEB000638FCEDC4ACE53305B925B5153305330AC
:10BEC000531153306BF28CF6532F5B7163B25B707E
:10BED0004B0F426E63914AEE7C54A5B7B638C6BA92
:10BEE0004ACDB61A7412AE1A84D4AE19A5B8B63AB1
:10BEF000ADF89D7774529D96955484D48CD58474F6
:10BF000073F27C535B306B924A8D52CE4AAE6331F2
:10BF10003A0D5B304AAE52EF52EF63B263D14B0E33
:10BF20005B70533053305330741263905B705B71AD
:10BF300053304AEF53105B515B5163725B515B317D
:10BF40005330531063715B506BF263CF6C0F8D12E3
:10BF5000A593EF9DF7BFFFFEFFFDF7FEFFFFFFFF7D
:10BF6000FFFFFFFFFFFFFFDEF7DEFFFFFFFFFFFF2B
:10BF7000FFDFFFFFFFFFFFFFFFDFFFDFFFDFFFDF71
:10BF8000FFFFFFFFFFFFFFFFFFFFFFFFFFDFFFFFE1
:10BF9000FFFFFFDFFFFFFFFFFFFFFFFFFFFFFFFFD1
:10BFA000FFFFFFFFFFFFFFFFFFFFFFFFFFFFFFFFA1
:10BFB000FFFFFFFFFFFFFFFFFFFFFFFFFFFFFFFF91
:10BFC000FFFFFFFFFFFFFFFFFFFFFFFFFFFFFFFF81
:10BFD000FFFFFFFFFFFFFFFFFFFFFFFFFFFFFFFF71
:10BFE000FFFFFFFFFFFFFFFFFFFFFFFFFFFFFFFF61
:10BFF000FFFFFFFFFFFFFFFFFFFFFFFFFFFFFFFF51
:10C00000FFFFFFFFFFFFFFFFFFFFFFDFFFDFFFFF80
:10C01000FFFFFFFFFFFFFFFFFFFFFFFFFFDFFFFF50
:10C02000FFFFFFFFFFDFFFDFFFDFFFDFFFDEFFDFE1
:10C03000F7FEEFBCBDF4BE34638F6352634F5B30D9
:10C0400094F57C52C69B6BB05B0F5B10637152EE34
:10C0500053105B106B715AF05B0F633263515B2FAF
:10C060005B2F5B4F530D5B6E63B0532F530F6B9180
:10C070006B915B7063705B505B3063505B305B5007
:10C080007412B639B63994F59D369536639063903F
:10C090009556A5B8530F4B0F531053714B30533176
:10C0A000533153309D576BD3531153104ACE4AEE40
:10C0B00063917C549D77B618CEFBDF5CD75C84B26D
:10C0C0004AED5B4F5B506392530E8CD65B70953597
:10C0D0008CF4A5D86BF1AE38534CADD7B65AADF948
:10C0E0009D559D559515B5D994F484738C945B0F2B
:10C0F00052CF52AF637153104AD05312530F6BF3A8
:10C100006BF35B5163924AEEADD984B484B37C92F5
:10C110006BF16BD15B70637153305B5153115331D1
:10C1200063725B31533153114B10535153105B7297
:10C130009512BE37FFDEFFDEF7FEF7FFF7FFFFDFEA
:10C14000FFFEFFFEFFDFFFDEFFDEFFFFFFFFFFFF63
:10C15000FFDFFFFFFFFFFFFFFFDFFFDFFFDFFFDF8F
:10C16000FFDFFFDFFFDFFFDFFFDFFFFFFFDFFFFF9F
:10C17000FFFFFFDFFFDFFFDFFFFFFFFFFFFFFFDF4F
:10C18000FFDFFFDFFFDFFFFFFFDFFFFFFFFFFFFF3F
:10C19000FFFFFFFFFFFFFFFFFFFFFFFFFFFFFFFFAF
:10C1A000FFFFFFFFFFFFFFFFFFFFFFFFFFFFFFFF9F
:10C1B000FFFFFFFFFFFFFFFFFFFFFFFFFFFFFFFF8F
:10C1C000FFFFFFFFFFFFFFFFFFFFFFFFFFFFFFFF7F
:10C1D000FFFFFFFFFFFFFFFFFFFFFFFFFFFFFFFF6F
:10C1E000FFFFFFDFFFFFFFFFFFFFFFDFFFFFFFFF9F
:10C1F000FFFFFFFFFFFFFFFFFFFFFFFFFFDFFFFF6F
:10C20000FFFFFFFFFFDFFFDFFFDFFFDFFFBEFFDF1F
:10C21000F7DFE75ACE959D526BD06BB173B173F2D5
:10C220008CD49D558CD35B2E530F5B314AAE5B5043
:10C2300052EF6351633052AD422A5AEF5B3052EEF7
:10C240005AEF635063306B3063305B306BB26BB26C
:10C2500084535B506BB16B916BD16B905B4F636F91
:10C260005B2F6BD194F49D369D57ADB895569D7755
:10C27000CEDC6BF15B505B51535153705371535192
:10C2800053115B30A5B84A8E63725B307C31A59543
:10C29000C699DF3BDF1BD6FAC698C699D6FD52CEAB
:10C2A000C69B63B0428C74526BB24AAE4ACF5B6F8E
:10C2B00052EE6BB26BB374349537745284949D57BD
:10C2C0009D5684B4B63A7C52A59694F484726BB0B1
:10C2D0008C93845394F6639163B07C7353105B72B8
:10C2E0005B315B7253316BB29D787C7384B49D5625
:10C2F000ADD8A597955695158493638F84B4743201
:10C30000532E6BD24B2F5370537053705372535242
:10C310008491A593DF19FFFEF7BFF7DFF7DEFFDE9D
:10C32000FFDEF7DEFFFEFFFEFFFFFFFFFFFFFFFF69
:10C33000FFFFFFDFFFDFFFFFFFFFFFDFFFDFFFDFAD
:10C34000FFFFFFDFFFDFFFDFFFDFFFDFFFDEFFFFBE
:10C35000FFFFFFDFFFDFFFDFFFFFFFFFFFFFFFDF6D
:10C36000FFDFFFDFFFDFFFDFFFFFFFFFFFFFFFFF5D
:10C37000FFFFFFFFFFFFFFFFFFFFFFFFFFFFFFFFCD
:10C38000FFFFFFFFFFFFFFFFFFFFFFFFFFFFFFFFBD
:10C39000FFFFFFFFFFFFFFFFFFFFFFFFFFFFFFFFAD
:10C3A000FFFFFFFFFFFFFFFFFFFFFFFFFFFFFFFF9D
:10C3B000FFFFFFFFFFFFFFFFFFFFFFFFFFFFFFFF8D
:10C3C000FFFFFFFFFFFFFFFFFFFFFFDFFFFFFFFF9D
:10C3D000FFFFFFFFFFFFFFFFFFFFFFFFFFDFFFFF8D
:10C3E000FFFFFFDFFFFFFFFFFFDFFFDFFFDEF7BE27
:10C3F000FFFECE75BE7484716B7163915AED94F536
:10C40000BE39BE598CD45B2F63715B104A6E52D01B
:10C410003A0B4A6D4A8D424C632E5B0F7C146B9134
:10C420006BB26371633073D273D273F273D26B9257
:10C430006310634F6370634F6B70637063506B91F5
:10C440006B9163716350632F5B0E5B2E637073F1AE
:10C4500073D1632F638F530F5B7152F063925B5202
:10C4600052F06BD2951673F1B5F8CEDBC699D71B97
:10C47000C69AC67ACEDBCEB9CEB9CEBAB5F8532DB0
:10C48000D73B428C9D17E7BC7C55534CB658B5FB47
:10C49000C69B637052B073F2530D530E52EF5B3074
:10C4A0007C3474146BD17C338CB4A5585B0FA577A6
:10C4B0006BD0ADD77452AE19ADD88D144AEF53314D
:10C4C0005B525311531163925B915B515B715B3013
:10C4D0005B2F84957C347C3474129D57CEDE953569
:10C4E000953695369D579D78532F5B715B724B3116
:10C4F00053518D12ADD2E75CFFFEFFBDFFFFFFFF82
:10C50000FFBFFFDFF7BEFFDEF7BEF7BEFFFEFFDEB9
:10C51000FFDEF7BEFFDFFFDFFFDFFFFFFFFFFFFFF5
:10C52000F7FEF7FEFFDFF7DFFFFFF7DFFFFFFFFF9D
:10C53000FFFFFFFFFFDEFFDEFFDEFFFFFFFEFFFE70
:10C54000FFFEFFFEFFFEFFFEFFDFFFFEFFFFFFFF20
:10C55000FFFEFFFFFFFFFFFFFFFFFFFFFFFFFFFFEC
:10C56000FFFFFFFFFFFFFFFFFFFFFFFFFFFFFFFFDB
:10C57000FFFFFFFFFFFFFFFFFFFFFFFFFFFFFFFFCB
:10C58000FFFFFFFFFFFFFFFFFFFFFFFFFFFFFFFFBB
:10C59000FFFFFFFFFFFFFFFFFFFFFFFFFFFFFFFFAB
:10C5A000FFFFFFFFFFFFFFFFFFFFFFDFFFDFFFFFDB
:10C5B000FFFFFFFFFFFFFFFFFFFFFFFFFFDFFFFFAB
:10C5C000FFFFFFFFFFDFFFDFFFDFFFFFFFDEF7DF24
:10C5D000F7BDBE13B61373F063515B2F31C984737B
:10C5E000B6399D557C734ACE63715B0F2129212991
:10C5F000424B7C3173D1422B31C95B2F63516BB2FB
:10C6000073D373D27C336BD273F273D263305AEF2D
:10C6100063505B0F634F3A2B4AAD5B0F5B2F5B0F91
:10C6200052EF6B9163506B7063706BB16B915B0EEB
:10C63000632F6350530E63505B315B30635052EF96
:10C640005B0F6BB0BE5ACEFACEFACED9BE78CEDA38
:10C65000BE59CEDB9D35CEB9CEB9CEDB6BB0A5963B
:10C660009533A577D6DDBE5852EECEFBADB76B92B3
:10C67000ADD7C6BA426CCEBB8CB442AD8CD58CD48F
:10C68000532D6BF15B6E530D5B2E7C1373B1A5774D
:10C690006BD0A5978CF5B61AADD96BF25330531009
:10C6A0005B7253315B7153105B715B3163724ACEC5
:10C6B000A5987C5352EE73F25B2E5B6F6BD1849422
:10C6C0008CD59536A5B89D574AEE53514B105B72E9
:10C6D00053516C109D51AD72B5B5DED9DEFAEF5CE9
:10C6E000F7BDFFFFF7BEFFDFFFFFFFFFFFDFF7BE76
:10C6F000FFDFF7BEFFDFF7DEF7DEF7BEF7DEF7DEC0
:10C70000F7DEF7DEFFFFFFFFFFFFFFFFFFFFFFFF8B
:10C71000FFFFFFFFFFFFFFDFFFFFFFDFFFFFFFFF69
:10C72000FFFFFFFFFFFFFFFEFFDFFFFEFFFFFFFF3B
:10C73000FFFEFFFFFFFFFFFFFFFFFFFFFFFFFFFF0A
:10C74000FFFFFFFFFFFFFFFFFFFFFFFFFFFFFFFFF9
:10C75000FFFFFFFFFFFFFFFFFFFFFFFFFFFFFFFFE9
:10C76000FFFFFFFFFFFFFFFFFFFFFFFFFFFFFFFFD9
:10C77000FFFFFFFFFFFFFFFFFFFFFFFFFFFFFFFFC9
:10C78000FFFFFFFFFFFFFFFFFFFFFFDFFFDFFFFFF9
:10C79000FFFFFFFFFFFFFFFFFFFFFFFFFFDFFFFFC9
:10C7A000FFFFFFFFFFDFFFDFFFFFFFFFF7BEF7DF4A
:10C7B000DEFAC653A5B36BB163515B2F739194F44A
:10C7C0009D76A5975B2F530F5B0F52CF190818E783
:10C7D0007C11BE36A575A5768C9319073A2C320AC2
:10C7E000424D424C5B2F424B424B31EA4A6D5AEE6E
:10C7F0006B6F63305B0F63506B915B0F5B0F5B0F75
:10C8000052EF5AEF5AEF5B0F52CE637063505B0FDB
:10C810006B7073F2739173926B926B71634F637071
:10C82000632F632E7C11CF1BCEDACEDAB618ADD7CC
:10C83000A5974AAB7C31BE79CEDAC69B5B2DC6DAB2
:10C84000BE59BE3A9D359D348493C6BB428D52B0CD
:10C850007410B6366BAECEDC4AAC9517D6FD6BF0D5
:10C86000A576CEFBBE3AC69B73F15B0D847252CDAA
:10C87000426B5B2E636F639073F34ACF5B114AF098
:10C880005B51530F53105310637252F05B516BD0D6
:10C89000E79E94D394F5E77EBE79B6589D76530F04
:10C8A000530F5B505B50530F4AEF53304B10537193
:10C8B0004B305B518CF194EE840E7BCB840B840D5A
:10C8C000948EAD73BDF5CE98E73BF7BDFFFEFFDE5E
:10C8D000FFDEF7DEFFFEFFDFFFFFFFDFFFDFF7DF3B
:10C8E000F7BEF7DEFFBEFFDEFFFFFFFFFFDFFFDF6C
:10C8F000FFDFFFDFFFFFFFFFFFFFFFDFFFDFFFFFC8
:10C90000FFFFFFFFFFFFFFFEFFFFFFFEFFFFFFFF39
:10C91000FFFFFFFFFFFFFFFFFFFFFFFFFFFFFFFF27
:10C92000FFFFFFFFFFFFFFFFFFFFFFFFFFFFFFFF17
:10C93000FFFFFFFFFFFFFFFFFFFFFFFFFFFFFFFF07
:10C94000FFFFFFFFFFFFFFFFFFFFFFFFFFFFFFFFF7
:10C95000FFFFFFFFFFFFFFFFFFFFFFFFFFFFFFFFE7
:10C96000FFFFFFDFFFDFFFDFFFDFFFFFFFDFFFFF77
:10C97000FFFFFFFFFFFFFFFFFFFFFFFFFFDFFFFFE7
:10C98000FFFFFFDFFFFFFFFFFFDFF7DEFFDEF7DF69
:10C99000C656CE948CD163516B91530E84348CD394
:10C9A00095359D5752CD5B305B10424D298921470B
:10C9B000A554E77BC67894F331C82989214810E64D
:10C9C000212910C719263A098CB36B6F6BB0634FDE
:10C9D0006B8F63305B106351635052CE63715B0F9A
:10C9E0005B105B305B0F52CE635052EF5B0F5B0FFF
:10C9F000632F5B2F52AD635163516B706B9063700B
:10CA00006BB26BB25B0F84B4A57784745B2F52EE6C
:10CA10008CB47C529D75DF3CBE7A7C537C72DF5BAC
:10CA2000B6394AADBE596B8FC69B6BD06372424D0F
:10CA3000BE5A94F39D55CEBCA578C69C7C12426C20
:10CA4000CEDD6BB04ACECEDC8C937C31DF3C3A2914
:10CA50009D35BE59CEBB73F05B2F5B515B325B31B2
:10CA60005B514AEF5B715B7163B15B4FADF8DF7D8A
:10CA7000D71BA595E77D9514ADD6E79E95354B1050
:10CA80004AF04AAF5330531053305351533153513E
:10CA90005371639263709D11844D7BEB73A973A9ED
:10CAA00073C96B896348632773AA842C94CEAD51F4
:10CAB000C614DED9EF5BF79CF7BDF7BEFFDEF7BE0D
:10CAC000F7BEFFDFFFFFFFDFF7BEF79EFFDFFFDFF1
:10CAD000FFDFFFDFFFFFFFFFFFFFFFDFFFDFFFFFE6
:10CAE000FFFFFFFFFFFFFFFEFFFFFFFEFFFFFFDF78
:10CAF000FFFFFFDFFFFFFFFFFFFFFFFFFFFFFFFF66
:10CB0000FFFFFFFFFFFFFFFFFFFFFFFFFFFFFFFF35
:10CB1000FFFFFFFFFFFFFFFFFFFFFFFFFFFFFFFF25
:10CB2000FFFFFFFFFFFFFFFFFFFFFFFFFFFFFFFF15
:10CB3000FFFFFFFFFFFFFFFFFFFFFFFFFFFFFFFF05
:10CB4000FFFFFFDFFFDFFFDFFFDFFFFFFFDFFFFF95
:10CB5000FFFFFFFFFFFFFFFFFFFFFFFFFFDFFFFF05
:10CB6000FFFFFFDFFFFFFFFFF7DEF7DEFFDEEF9ED9
:10CB7000BE35B6126BF05B116BB152CD9CF7847170
:10CB8000BE5A741252EE530F52EF3A0C18E64AABEB
:10CB9000CE99DF1BCEB973EE10A3634F6B70845236
:10CBA0006B9108843A2A6B8FD6DBCE9ADF3DA5764F
:10CBB00052ED5B1052CF5AEF52CE5B0F5B0F5B0F03
:10CBC0006B915AEF632F5B0F63305AEF635052EE55
:10CBD0006B904AAC52CE52EF52CF5B30530E52EFB5
:10CBE00052F053105B514ACE6BB252CE6B916BB286
:10CBF00063509516A5978472636F52EFA597B63769
:10CC00004AAC7C33C69A426CD6FC84725B0E94F5B7
:10CC1000E79E530DCEFC73F19514C69A530C8453C2
:10CC2000C69C52ED5B2FD71C740FBE79847294D4CE
:10CC3000CEBC636E8492DF7E4AEE5B715B305B71CB
:10CC40005B505330535053304AEDA5B6DF5C8CB186
:10CC50008CD2DF3B9D356BAFDF3D9D5652EE5311BD
:10CC600063B3531053104B105B5153514B1053315E
:10CC70004B30535052F173B0844C6B4A6B4A63098A
:10CC8000738A73897BEB73AA7BCA738973A97368F0
:10CC90006B487BCB7BCB840C948FAD53C5F6D69879
:10CCA000E71BF79DFFFFFFFFFFFFFFDFFFDEFFDF5B
:10CCB000FFDFFFDFFFDEFFDEFFDEFFDEFFDEFFDE8A
:10CCC000FFDEFFDEFFDEFFDFFFDFFFFFFFFEFFDF38
:10CCD000FFFEFFDFFFFFFFFFFFFFFFFFFFFFFFFF85
:10CCE000FFFFFFFFFFFFFFFFFFFFFFFFFFFFFFFF54
:10CCF000FFFFFFFFFFFFFFFFFFFFFFFFFFFFFFFF44
:10CD0000FFFFFFFFFFFFFFFFFFFFFFFFFFFFFFFF33
:10CD1000FFFFFFFFFFFFFFFFFFFFFFFFFFFFFFFF23
:10CD2000FFFFFFDFFFDFFFDFFFDFFFFFFFDFFFFFB3
:10CD3000FFFFFFFFFFFFFFFFFFFFFFFFFFFFFFFF03
:10CD4000FFFFFFDFFFDFFFDFFFDFFFDFF7BEDF1BE0
:10CD5000C655A5916BB05310530E6B90B5B9ADF697
:10CD60008CD452EE5B10530F52EF2989192684712F
:10CD7000F7DD9CD2C6584A48214573D052EC636E09
:10CD80007C1173D0632D73CFE77CDEFAEF9D73D0F7
:10CD90005B0F5B305B3063306B715AEF63306B71EC
:10CDA0006B915B2F5B0F5B0F5AEF4A8E4A8D63507E
:10CDB000422B4A8B3A0B52CF635152EF530F5B1009
:10CDC00052F05B1052EE52CD634F5B2E7C324AAD77
:10CDD0005B2F52EE5B2F52ED5B3063515B6F638EC6
:10CDE0004ACD7412847352EE7C11D6DBBE39C6B9BB
:10CDF00073F08C93DF5C530C532BDF5C636DBE5977
:10CE000084734ACC6BB0DF7D5B2BDF5C4AABDF5EAB
:10CE100073D252EF5B308CB653105310530F533014
:10CE20004AEF4B1053514B1042ADC6BCBE5AB638F8
:10CE3000CEBBC67A73D0DF3EBE5B4ACE53104AD01B
:10CE40005B724ACF531053314B10533053104B1079
:10CE50004B105B505AF16B916B8C632D630D630B20
:10CE60006B2C630A6B4A6B2A6B496B496B4973687D
:10CE700073896B6873896B696B696B486B496B2944
:10CE8000738A840D94D0B5B4CE98E73AF7BDF7DD38
:10CE9000F7DEF7DEF7BEF7BEFFDEFFDFFFDFF7DF0F
:10CEA000F7DEF7DFF7DFFFBFFFDFF7DFF7FEF7FFA4
:10CEB000FFFEFFFFFFFFFFFFFFFFFFFFFFFFFFFF83
:10CEC000FFFFFFFFFFFFFFFFFFFFFFFFFFFFFFFF72
:10CED000FFFFFFFFFFFFFFFFFFFFFFFFFFFFFFFF62
:10CEE000FFFFFFFFFFFFFFFFFFFFFFFFFFFFFFFF52
:10CEF000FFFFFFFFFFFFFFFFFFFFFFFFFFFFFFFF42
:10CF0000FFFFFFDFFFFFFFFFFFDFFFFFFFDFFFFF91
:10CF1000FFFFFFFFFFFFFFFFFFFFFFFFFFFFFFFF21
:10CF2000FFDFFFDFFFDFFFFFFFFFF7DEFFDECE7774
:10CF3000BE34848F5B0F63517C32A57794F69D7568
:10CF40008CD552EF639152EF39EB296852CC4A6984
:10CF5000AD536B4A842E18C318E3296531872946DF
:10CF600021456B6E31869D13CE57DEF9BE374AAB35
:10CF7000632F5AEE63305B2F52CE5B0F632F5B0F34
:10CF800031CA52CD52EE5AEF5B3029892989424B82
:10CF900073D052CC632D424A52AD63505B3052CFB6
:10CFA0005AF05AEF52EE5B0F63505B2F5B0F39EA7A
:10CFB0005AEF5AEF4A8D6B9152F053104ACD530EEF
:10CFC0005B2F530F530F5B2F5B0F7C127BF26BD0E9
:10CFD0005B0E94F4BE58BE59BE79A59773F0DF5D21
:10CFE00084717C52C6DA8CF47C52A5B57C50B5F8BD
:10CFF000426B52CF5B315B315B5153304AF053117E
:10D000004AF053304AEF63D2741252EF73F2741243
:10D0100084945B4F8CB4B61A7C7463925310533172
:10D02000531053304AF0533053104AF0531052F01B
:10D03000531053105B2F6B705AEE630F630E634EE9
:10D040006B4E738F6B4E630C738D6B4B5AC96B4A6F
:10D050005AA863285AC76B496B696B287BCA6B68EF
:10D060006B4862E663286328632863297BCC8C6E57
:10D070009CF1B594D6B9E71BEF7CF79DF7DEFFFF77
:10D08000F7DFF7FFF7FFFFBFF7DEF7BEFFFFF7FFA2
:10D09000F7DEFFFFFFFFFFFFFFFFFFFFFFFFFFFFC9
:10D0A000FFFFFFFFFFFFFFFFFFFFFFFFFFFFFFFF90
:10D0B000FFFFFFFFFFFFFFFFFFFFFFFFFFFFFFFF80
:10D0C000FFFFFFFFFFFFFFFFFFFFFFFFFFFFFFFF70
:10D0D000FFFFFFFFFFFFFFFFFFFFFFFFFFFFFFFF60
:10D0E000FFFFFFFFFFDFFFDFFFFFFFDFFFDFFFFFD0
:10D0F000FFFFFFFFFFFFFFFFFFFFFFFFFFFFFFFF40
:10D10000FFDFFFDFFFFFF7DEF7DEF7DEEF7CBDF4CA
:10D11000BE546BCF63315B0F7C52A55694F5A59638
:10D12000741252EF5B0F426D29A9422A4229212431
:10D130006B4A8C8B5AE80842212410A118C318A30B
:10D14000088210A33185A553844EE75B7BEF52CC58
:10D15000634F52CD52EE5AEE52EE632F632F5AEECA
:10D160004A6C52CE52EE63306B91190719065B0E72
:10D17000D6BBD6FBC67894F33A0A422C422C3A0C22
:10D18000422D52CF52CE52AF4A6D4A8D4A6C52CE8A
:10D190005B0F52CE5B0F5B304ACF52CF4ACE5B1053
:10D1A00052EE52CE52AF5B0F63515AF05AF05AEF23
:10D1B0005B105B2F634F6BB163905B4F73F2A5966F
:10D1C000C679C6BB9D545B2EDF1E6BCE94F3B5F7BC
:10D1D00052EC951684956371428E530F530F4ACFCC
:10D1E0004AEF530F4AEDBE7A9556BE5A6BD19D5702
:10D1F0003A4B530E73F2532F5B515B5153305B51DB
:10D2000053104B104AEF4B1052F052F05310531082
:10D2100053105B106350634F5ACF6310632E632F1C
:10D2200052AE52CF5ACE5AEE6B706B70630E6B4E8D
:10D2300062ED62EB62EB62EA5AA95AE95AC862E807
:10D2400063286B486B086B486B486B486B486B28CE
:10D2500063076B0862C7736A840C9CAFAD52CE56ED
:10D26000DEF9E73BEF5CF7DDFFFEFFDEFFDEFFFEF2
:10D27000F7BEF7DEFFFFFFFFFFFFFFFFFFFFFFFF30
:10D28000FFFFFFFFFFFFFFFFFFFFFFFFFFFFFFFFAE
:10D29000FFFFFFFFFFFFFFFFFFFFFFFFFFFFFFFF9E
:10D2A000FFFFFFFFFFFFFFFFFFFFFFFFFFFFFFFF8E
:10D2B000FFFFFFFFFFFFFFFFFFFFFFFFFFFFFFFF7E
:10D2C000FFFFFFFFFFDFFFDFFFFFFFDFFFDFFFFFEE
:10D2D000FFFFFFFFFFFFFFFFFFFFFFFFFFFFFFFF5E
:10D2E000FFFFFFFFFFFFF7DEFFDFF7DEDF1ACE7580
:10D2F000ADB3636F63305B0F6BB09D55953584B4F0
:10D300004ACD637052EF426C10C58431632D0862C0
:10D310005267E775B5B118C318C318C218C318C34C
:10D3200018C418E42964528763297BED39C66B6FF2
:10D33000632F8C9473D16B70634F5B0E5B0E52CD79
:10D3400052EE5B0F52CE5B2F52AD298918E57C114E
:10D35000E75CE75C94F35B2D190721281928212944
:10D36000214929A93A0AA5568CB48C9373B04AACCA
:10D370005B0F5B0F5B105AF052AF52EF4AAE4AAFF1
:10D3800052EE52CE4AAF52EE635039EB4AAD4AAD3F
:10D390005B105AEF52CF52CF5B0F5AEF5B0F5B2EF1
:10D3A000634E5B2E634E4A6B9CF5422B630EC65A4E
:10D3B000BE59BE3984735B2F5B515B31530E52EE05
:10D3C000530F52EF4AEF95165B4F8CF58CB4BE5B52
:10D3D00074126BD1D73D84D54ACF53114AF05B50BC
:10D3E000530F52EF4AEF5310531052F052F052F0D5
:10D3F00052EF5B0E63515AEE52CF5B0F4A8C4A8D4F
:10D400004A6D52AE52CF4AAE52CE5B0F52CF5AEF58
:10D410005AEF62CF5AAE630E5ACD5AEC5AEC6B4CAF
:10D420005AEB62EB62CA62E96B096B296B286B48A5
:10D430007368736873687B887368732773287328AD
:10D4400083AA83CB942DA530BDD5CE57D678F79A35
:10D45000FFFFFFDFFFFFFFFFFFFFFFFFFFFFFFFFFC
:10D46000FFFFFFFFFFFFFFFFFFFFFFFFFFFFFFFFCC
:10D47000FFFFFFFFFFFFFFFFFFFFFFFFFFFFFFFFBC
:10D48000FFFFFFFFFFFFFFFFFFFFFFFFFFFFFFFFAC
:10D49000FFFFFFFFFFFFFFFFFFFFFFFFFFFFFFFF9C
:10D4A000FFFFFFFFFFDFFFDFFFFFFFDFFFDFFFFF0C
:10D4B000FFFFFFFFFFFFFFFFFFFFFFFFFFDFFFDFBC
:10D4C000FFFFFFFFFFFFFFDFFFFFF79ECEB7CE7529
:10D4D0008C916BD26B715B106BD1A5758CF49D57E1
:10D4E0004ACD530F52EF31CA21269D144A6A18A320
:10D4F000294363275AC818A3212520E318C318A37A
:10D5000018C318E4212339A4946E6B6A296573B09B
:10D5100073B1CE9BAD98C67B7C1252AD63505AEE70
:10D5200052AD5AEE52CE4AAD3A0B214710A4AD7619
:10D53000E73BE75B8C9210C51907190718E718E756
:10D54000190721465B4DD71ABE57E75CC6596B9049
:10D550005AEE5B1052CF5B105B0F5B0F5AEF52EF2E
:10D5600052EF52EF52CE52EF52CD4A8D5B0D4A8DA3
:10D5700052CE4A8D52CF4A8E4A8D4AAE63104A8DA2
:10D5800039CA422B39CAAD77318720E639C952AC46
:10D5900073D1636E4ACC5B0E52CF5AF05B2F530FA0
:10D5A0005B0F5AF04A8F4AAF5B104AAE5B105B2F9D
:10D5B00052EF530FADD8530F52F052F15B3153106D
:10D5C0004ACF52F052F053305310531052CF52CF33
:10D5D000530F5B4F635152CE52CE52EE4A6B4A8D7F
:10D5E0004AAD4ACD4AAD4A8C4AAD4AAD4AAD4A8DA4
:10D5F00052CF5AAF52AE6330630F528D52AD5B0EB5
:10D6000052AD632F630E5ACD5AAB5ACB630B62EA0D
:10D610005AC9630963096B29736A736973697B89E2
:10D620007B6873277B4873887BAB7BAA7B8A9CCC07
:10D63000CE56FFFFFFFFFFFFFFFFFFFFFFFFFFFFD4
:10D64000FFFFFFFFFFFFFFFFFFFFFFFFFFFFFFFFEA
:10D65000FFFFFFFFFFFFFFFFFFFFFFFFFFFFFFFFDA
:10D66000FFFFFFFFFFFFFFFFFFFFFFFFFFFFFFFFCA
:10D67000FFFFFFFFFFFFFFFFFFFFFFFFFFFFFFFFBA
:10D68000FFFFFFDFFFFFFFFFFFDFFFFFFFDFFFFF0A
:10D69000FFFFFFFFFFFFFFFFFFFFFFFFFFDFFFDFDA
:10D6A000FFFFFFFFFFDFFFFFFFFFE71CC655C6546C
:10D6B00073AF63316B5063108CD59D33955673D225
:10D6C000530E5B2F4AAE21684A6A8C715AAB3166A1
:10D6D00018C20861108218C3108320E418E318C42C
:10D6E00018E418C329443184DEF7B59231A45B0DE8
:10D6F00063308C936B8F73D15B2E52ED52CD52CE33
:10D7000052EE52CE5AEF4A8D31C92147424AE75D67
:10D71000B5B5F7BC62EB10A318C518A518C518C598
:10D7200018C52105A514F7FED6FADF1C7C115B0E87
:10D7300052CE63505B305B0F5B0F5B0F5B1052EFA1
:10D7400052CE52CE5B0F52CF4AAD52CF5B0E52CF6C
:10D7500052AE4AAD4A8E5AEF63705B2E5B2D39C9CB
:10D76000294721052967EF7C8C4F41E66B4CB5B703
:10D77000843284737C315B2E7BF2630F5B0F634FCB
:10D78000634E5B2E5B0E632F635052EE52CE52EF10
:10D790004AD0531042AD4AEE530F53105B3052D073
:10D7A0004ACF531052F0531052F0531052EF52EF31
:10D7B000530E5B505B4E4AAE52AE4AAD4A8E52AEED
:10D7C00052AD52AE52AE4A8D4A8D4A8D4A6D424D8F
:10D7D000528E426B52CD4A8C4A6C424C4A8D4A6EF4
:10D7E000528E52CF52AF52AE52AE52CD52CD5AEEB1
:10D7F00052AD5AEE5ACC5B0C5B0B5AEA632A6B298A
:10D80000738A7B897B8973677B8A8BE98C0A94682E
:10D81000BD92F7BFFFFFFFFFFFFFFFFFFFFFFFFF0F
:10D82000FFFFFFFFFFFFFFFFFFFFFFFFFFFFFFFF08
:10D83000FFFFFFFFFFFFFFFFFFFFFFFFFFFFFFFFF8
:10D84000FFFFFFFFFFFFFFFFFFFFFFFFFFFFFFFFE8
:10D85000FFFFFFFFFFFFFFFFFFFFFFFFFFFFFFFFD8
:10D86000FFFFFFFFFFFFFFFFFFDFFFFFFFDFFFFF08
:10D87000FFFFFFFFFFFFFFFFFFFFFFFFFFFEFFFEBA
:10D88000FFDFF7FDEFDDE6FACE76B634BE72ADD43B
:10D890006B91634F7BF25B0F94F594D394F49D7876
:10D8A0005B4F5B0F4A8D21268451738F7BEEDEF92F
:10D8B0009CD12944318539C6294418A220E3292462
